:102000000080002059B6000041B6000041B6000033
:1020100000000000000000000000000000000000C0
:1020200000000000000000000000000041B60000B9
:10203000000000000000000041B60000ADB6000046
:1020400041B6000041B6000041B6000015980000FE
:1020500005B6000041B6000041B6000045B60000DC
:1020600041B6000041B6000041B600004DA000009E
:1020700041B6000041B60000D1B3000041B60000F7
:1020800041B6000041B6000041B6000041B6000074
:102090000000000041B6000041B6000041B600005B
:1020A00041B6000041B6000041B6000041B6000054
:1020B0000000000010B5064C2378002B07D1054B1B
:1020C000002B02D0044800E000BF0123237010BDA4
:1020D000F002002000000000388B0100044B10B516
:1020E000002B03D00349044800E000BF10BDC046E8
:1020F00000000000F4020020388B01000F2370B5AF
:102100000400084E150003603200C9B2343008F0F4
:1021100075F92000E9B23200403008F06FF9200074
:1021200070BDC0465C1200207047000010B5C16051
:10213000081C10F0E7FA074A074B0FF061F800227D
:10214000064B0FF067FC10F03BFA01000F2009F07E
:102150005FFD10BD5C8FC2F5285C0A4000F88F401F
:1021600070B5104E0D1C0400311C281C0DF0F0FD44
:10217000002808D0FF206660C2B220000021343061
:1021800008F05EF970BD65600749281C0EF0EEFA94
:1021900010F0B8FA054A064B0FF03CFC10F010FAAC
:1021A000EAE7C0469C337349000070428DEDB5A04C
:1021B000F7C6303F4068704770B50D1C0400816859
:1021C000281C0DF0C9FF0B492062281C0EF0CEFA26
:1021D00009490EF0CBFA10F095FA084B084A0FF0B7
:1021E00019FC10F0EDF9C2B220000021403008F0D7
:1021F00027F970BD00007A4400007042F7C6303FF6
:102200008DEDB5A070B51D1C049B04008360069B7A
:10221000016003613430161C08F052F9002803D124
:10222000114912480BF010FF2000403008F048F927
:10223000002803D10C490D480BF006FF0C2009F0D3
:102240001BFC022009F044FC0A2009F03BFC311C75
:102250002000FFF76BFF291C2000FFF781FF059985
:102260002000FFF7A9FF70BDEC750100BC1700202E
:10227000F8B50E1C05004168301C0EF077FA0021FD
:10228000071C0DF05BFD012400282BD01849381CD9
:102290000DF054FD002800D1041CE4B2002C1FD026
:1022A0001449301C0EF062FA10F02CFA124A134B4B
:1022B0000FF0B0FB10F084F910F0B8F90022104BC9
:1022C0000FF0A8FB00220F4B0FF0A4FB00220E4BD7
:1022D0000EF07AFC10F068FA011C2800FFF740FFAE
:1022E0002000F8BD0949381C0DF014FDD2E7C046A6
:1022F00080969846000070428DEDB5A0F7C6303F3D
:1023000080842E410000703F00004E40809698C6A9
:10231000F7B50400C06810F0F5F92C4A2C4B0EF00C
:102320006FFF00222B4B0FF075FB10F049F90100F5
:102330000F2009F06DFC2368D8B209F0FBFB23697C
:1023400005006061181C019310F0DCF90022224B9B
:102350000FF060FB060028000F0010F067F9020084
:102360000B00300039000FF055FB10F01DFAE76844
:10237000266A051C311C6062381C0DF0EDFE391C0C
:102380000DF050FD311C071C281C0DF0E5FE011C52
:10239000381C0EF0EBF90026A062311C051C0DF074
:1023A000B3FC002802D0E662E06AFEBD6168281C2A
:1023B0000EF0AAF8291C061C01980EF0D7F9011C92
:1023C000301C0DF0C9FEE062EEE7C0465C8FC2F53E
:1023D000285C0A4000F88F400000303F006B7047D7
:1023E00070B50400481E0D000EF0A4FB216B0EF02A
:1023F0008BF8E16A0DF016FD061C28000EF09AFB22
:10240000011C301C0DF0A8FE206370BDF0B5050066
:102410002E002C008DB01836043003F09DFB3000E8
:1024200003F09AFB544B2C340093544A544B5549B7
:10243000200008F0B7FA544B2100EB622B00FC336C
:102440009E622C330393514A0023039808F00CFD3D
:102450002B00B533FF330493210000234C4A04982A
:1024600008F002FD90239B00EB1805932100002348
:10247000484A059808F0F8FCB3239B00EB18069334
:1024800021000023444A069808F0EEFCD6239B0066
:10249000EB18079321000023404A079808F0E4FC5A
:1024A000F9239B00EB180893210000233C4A08986D
:1024B00008F0DAFC8E23DB00EB18099321000023DF
:1024C000384A099808F0D0FC374B2100EB180A93E2
:1024D000364A00230A9808F0C7FCB123DB00EB184A
:1024E0000B9321000023324A0B9808F0BDFC314BBE
:1024F000314AEF1821000023380008F0B5FCD4233E
:102500002E4EDB00E81831000BF079FF2C4B310028
:10251000E8180BF074FFD723DB00E81831000BF04C
:102520006EFF0399200008F0CAFA0499200008F011
:10253000C6FA0699200008F0C2FA0899200008F0AF
:10254000BEFA0A99200008F0BAFA0599200008F0AE
:10255000B6FA0799200008F0B2FA0999200008F0AD
:10256000AEFA0B99200008F0AAFA3900200008F012
:10257000A6FA28000DB0F0BD737801005B070000DB
:1025800058780100637801001481010094780100FB
:10259000A7780100C3780100DF780100F878010016
:1025A0001179010028790100FC0400003F79010045
:1025B000587901001406000071790100A685010018
:1025C000AC060000D72310B50400DB00C0180BF0E8
:1025D000C7FE054BE0180BF0C3FED423DB00E01868
:1025E0000BF0BEFE200010BDAC060000F0B587B0B9
:1025F0000393D423002506001400DB00C3180560F4
:10260000180001930BF04EFF364B2100F318180011
:1026100002930BF047FF344F380003F035F8334C8A
:102620000095FF2805D1200031490BF00DFD002059
:1026300052E03368032B1FD0009B039A2B4D93422B
:102640004CDA2C4928000BF0D1FC019928000BF042
:10265000F1FC029928000BF0EDFC224B3800F258F7
:102660000C3BF15802F05CFF3060234809F062F83F
:10267000009B01330093DCE7204920000BF0E4FCD1
:102680001F4920000BF0B2FC380002F0C3FF01002C
:1026900020000BF0D9FC380002F0BAFF010004A8BA
:1026A0000BF0A6FB174920000BF0A0FC04A92000AA
:1026B0000BF0DEFC380002F0BBFF050012492000E1
:1026C0000BF094FC0A22290020000BF0FFFC0F49BC
:1026D00020000BF0B9FC012007B0F0BD0C49280028
:1026E000A3E7C046AC060000D00C0020BC170020B9
:1026F000DA770100F2770100102700004678010028
:102700001178010018780100257801003D7801005A
:1027100042780100D72310B5DB00C0180BF0C2FED1
:1027200010BD000070B52C30040008F0B1FB00288B
:1027300013D10D4D0D4928000BF058FC200008F076
:1027400037FB011E0AD0200008F098F9010028008C
:102750000BF066FC200008F09FF970BD04492800CA
:102760000BF072FCF9E7C046BC1700204076010070
:1027700057760100F0B58BB003910700B54907A863
:1027800005930492109C0BF03AFE0023236038005E
:10279000B1492C3008F068FA002800D154E13B0020
:1027A0002933FF33984214D13D00AC4E2E35AC494D
:1027B000FF3530000BF01AFC290030000BF044FC10
:1027C000A849280011F018F901230028DED00223BF
:1027D000DCE73B00B533FF3398421AD1A2499F484A
:1027E0000BF004FC3900BA31FF3107A80BF07CFE76
:1027F00007A80BF05CFF0325061C0FF083FF009574
:1028000002000B0095480BF05DFD039BDE60256028
:10281000BDE790239B00FB1898421AD18F4E934935
:1028200030000BF0E3FB924B07A8F9180BF05CFEAD
:1028300007A80BF03CFF051C0FF064FF0B00022102
:102840000200009130000BF03DFD049BDD6004238D
:102850009CE7B3239B00FB1898421AD17F4E854911
:1028600030000BF0C3FB844B07A8F9180BF03CFEBB
:1028700007A80BF01CFF051C0FF044FF0B00022102
:102880000200009130000BF01DFD039B5D600323EF
:102890007CE7D6239B00FB18984219D16F4E7749ED
:1028A00030000BF0A3FB764B07A8F9180BF01CFEC9
:1028B00007A80BF0FCFE051C0FF024FF0B00022103
:1028C0000200009130000BF0FDFC049B5D60BEE750
:1028D000F9239B00FB18984219D1604E69493000DA
:1028E0000BF084FB684B07A8F9180BF0FDFD07A857
:1028F0000BF0DDFE051C0FF005FF0B0002210200AE
:10290000009130000BF0DEFC039B1D60BFE78E23BF
:10291000DB00FB18984219D1504E5C4930000BF097
:1029200065FB5B4B07A8F9180BF0DEFD07A80BF061
:10293000BEFE051C0FF0E6FE0B0002210200009116
:1029400030000BF0BFFC049B1D6080E7514BFB186F
:10295000984219D1414E504930000BF047FB4F4B84
:1029600007A8F9180BF0C0FD07A80BF0A0FE051C86
:102970000FF0C8FE0B0002210200009130000BF0A6
:10298000A1FC039B9D6082E7B123DB00FB1898420A
:1029900019D1324E424930000BF028FB414B07A8B9
:1029A000F9180BF0A1FD07A80BF081FE051C0FF034
:1029B000A9FE0B0002210200009130000BF082FC06
:1029C000049B9D6043E7384BFB18984200D0DEE63D
:1029D000224E364930000BF009FB354B07A8F91899
:1029E0000BF082FD07A80BF04FFE0A220500010044
:1029F00030000BF08AFB08232B4000D00123059AFE
:102A00001370022201232A4069070ED4002A06D03F
:102A1000039A13741D4005D0039A537437E7039942
:102A20000A74F7E7039B5D7431E7002A06D0049A25
:102A300013741D4005D0049A537408E704990A746E
:102A4000F7E7049B5D7402E707A80BF089FC0BB065
:102A5000F0BDC046A685010088130000BC17002009
:102A60000B7701001377010016770100277701002B
:102A70004502000038770100D102000046770100CE
:102A80005D03000054770100E90300006077010056
:102A900075040000FC0400006C77010001050000D3
:102AA0007A7701008D050000140600008877010088
:102AB00019060000F0B5314BA1B008A802000F00C4
:102AC000190070C970C20968103311600CAA150092
:102AD0008C4654CB54C51C680CAA2C6001AB62CA4E
:102AE00062C31C60634608990093099A0A9B10A868
:102AF00007F001FD0024224802F022FF0134021EEB
:102B000008D1062CF7D11F491F480BF09DFA002071
:102B100021B0F0BD062CF6D0002310A807F0C7FDA9
:102B200004000D0007F0A2FE29000790200007F026
:102B3000ADFE29000600200007F0B0FE0300694644
:102B40003033F2B2DBB2097F380006F013FF290000
:102B5000200007F073FE29000790200007F076FEA2
:102B600029000600200007F079FE6946C3B2F2B2E0
:102B70003800097F06F0B2FE0120C9E71476010093
:102B8000D00C0020F9760100BC170020F0B58FB002
:102B9000041D0E0002A83349150001930BF02FFC11
:102BA00002A905A80BF08EFC2F4905A80BF005FD26
:102BB0000700149908A80BF085FC08A938000BF051
:102BC000EFFC2A490BF0F9FC070015990BA80BF054
:102BD00079FC0BA938000BF0E3FC25490BF0EDFC68
:102BE00031000BF0DDFC23490BF0E7FC29000BF072
:102BF000D7FC21490BF0E1FC01990BF0D1FC1F49F6
:102C00000BF0DBFC010020000BF014FA0BA80BF01A
:102C1000A7FB08A80BF0A4FB05A80BF0A1FB02A8DA
:102C20000BF09EFB16490BA80BF0E9FB154908A811
:102C30000BF0E5FB08A90BA80BF0B2FC010020008B
:102C40000BF0F8F908A80BF08BFB0BA80BF088FB36
:102C50000D4920000BF0F8F920000BF0D9F9012004
:102C60000FB0F0BD7176010076760100807601002C
:102C70008B760100947601009D760100A676010016
:102C8000B0760100B7760100C776010070B58AB052
:102C9000172301A80E0015000D490E4A05F036FC59
:102CA00001A805F0F0FA041E0DD0310001A80BF0C8
:102CB000C1F9290001A80BF0BDF901A805F0D6FA69
:102CC00020000AB070BD044904480BF0BDF9F7E7D5
:102CD000D80F0020D9760100E6760100BC1700204D
:102CE00070B5164D164C8AB00E002000290005F074
:102CF00053FC002803D02900200005F059FC2100D6
:102D000017232A0001A805F001FC01A805F0BBFA71
:102D1000041E0ED0002101A805F07AFA0A22310023
:102D200001A80BF00CFA01A805F0A0FA20000AB0E7
:102D300070BD044904480BF087F9F7E76776010096
:102D4000D80F0020E6760100BC170020F0B591B046
:102D500007000D0001A81E490BF051FB1D4E1E4C33
:102D60003100200005F018FC011E02D13800FFF7E9
:102D7000B7FF21000123320007A805F0C7FB07A811
:102D800005F081FA041E1DD00A2207A904A80BF041
:102D9000CFFA04A901A80BF09FFB04A80BF0E0FAFE
:102DA000039B01A8591E0BF069FC01A80BF06CFCF9
:102DB000286007A805F05AFA01A80BF0D1FA200004
:102DC00011B0F0BD054906480BF03EF9F4E7C046E6
:102DD000A685010067760100D80F0020E676010085
:102DE000BC17002010B5044802F04EFC03384342E3
:102DF0005841C0B210BDC046D00C0020F0B50C0048
:102E00008DB0FE4903A817000BF0F9FA2100FC4829
:102E10000BF010F9FB4909A80BF0F1FA09A90022FF
:102E200020000BF0E3FB050009A80BF099FA2B003A
:102E30000022210009A80BF0E9FB09A938000BF0DA
:102E40004BFB09A80BF08CFA0135EE4909A80BF0F1
:102E5000D6FA2A0009A920000BF0C8FB060009A831
:102E60000BF07EFA390006A80BF02CFBE64906A809
:102E70000BF0A3FB33002A000190210009A80BF0FE
:102E8000C5FB09A901980BF08BFB010038000BF082
:102E900009FB09A80BF064FA06A80BF061FA0136E9
:102EA000D84909A80BF0ABFA320009A920000BF0B1
:102EB0009DFB050009A80BF053FA390006A80BF09A
:102EC00001FBD24906A80BF078FB2B0032000190E1
:102ED000210009A80BF09AFB09A901980BF060FBEF
:102EE000010038000BF0DEFA09A80BF039FA06A849
:102EF0000BF036FA0135C34909A80BF080FA2A0015
:102F000009A920000BF072FB060009A80BF028FAB3
:102F1000390006A80BF0D6FABC4906A80BF04DFB09
:102F200033002A000190210009A80BF06FFB09A9CA
:102F300001980BF035FB010038000BF0B3FA09A83B
:102F40000BF00EFA06A80BF00BFA0136AD4909A8F2
:102F50000BF055FA320009A920000BF047FB0500E1
:102F600009A80BF0FDF9390006A80BF0ABFAA74948
:102F700006A80BF022FB2B0032000190210009A8CB
:102F80000BF044FB09A901980BF00AFB0100380083
:102F90000BF088FA09A80BF0E3F906A80BF0E0F9AA
:102FA0000135984909A80BF02AFA2A0009A920003E
:102FB0000BF01CFB060009A80BF0D2F9390006A89B
:102FC0000BF080FA914906A80BF0F7FA33002A00BB
:102FD0000190210009A80BF019FB09A901980BF039
:102FE000DFFA010038000BF05DFA09A80BF0B8F920
:102FF00006A80BF0B5F90136824909A80BF0FFF9D4
:10300000320009A920000BF0F1FA050009A80BF025
:10301000A7F9390006A80BF055FA7C4906A80BF071
:10302000CCFA2B0032000190210009A80BF0EEFA37
:1030300009A901980BF0B4FA010038000BF032FA3C
:1030400009A80BF08DF906A80BF08AF901356D4936
:1030500009A80BF0D4F92A0009A920000BF0C6FA40
:10306000060009A80BF07CF9390006A80BF02AFA33
:10307000664906A80BF0A1FA33002A00019021004E
:1030800009A80BF0C3FA09A901980BF089FA01000D
:1030900038000BF007FA09A80BF062F906A80BF04C
:1030A0005FF90136574909A80BF0A9F9320009A9BF
:1030B00020000BF09BFA050009A80BF051F939002C
:1030C00006A80BF0FFF9514906A80BF076FA2B0081
:1030D00032000190210009A80BF098FA09A9019883
:1030E0000BF05EFA010038000BF0DCF909A80BF0D8
:1030F00037F906A80BF034F90135424909A80BF05D
:103100007EF92A0009A920000BF070FA060009A830
:103110000BF026F9390006A80BF0D4F93B4906A8B4
:103120000BF04BFA33002A000190210009A80BF0A4
:103130006DFA09A901980BF033FA010038000BF081
:10314000B1F909A80BF00CF906A80BF009F9013642
:103150002C4909A80BF053F9320009A920000BF003
:1031600045FA050009A80BF0FBF8390006A80BF09A
:10317000A9F9264906A80BF020FA2B00320001908D
:10318000210009A80BF042FA09A901980BF008FAEE
:10319000010038000BF086F909A80BF0E1F806A849
:1031A0000BF0DEF80135174909A80BF028F92A00C1
:1031B00009A920000BF01AFA060009A80BF0D0F8B4
:1031C000390006A80BF07EF9104906A80BF0F5F9B6
:1031D00033002A000190210009A80BF017FA09A971
:1031E00001980BF0DDF9010038000BF05BF909A83C
:1031F0000BF0B6F806A80BF0B3F809E0A6850100BD
:10320000BC170020347601003A76010036760100C2
:103210000136854909A80BF0F2F8320009A920000F
:103220000BF0E4F9050009A80BF09AF8390006A89C
:103230000BF048F97D4906A80BF0BFF92B003200CE
:103240000190210009A80BF0E1F909A901980BF000
:10325000A7F9010038000BF025F909A80BF080F858
:1032600006A80BF07DF801356F4909A80BF0C7F8E7
:103270002A0009A920000BF0B9F9060009A80BF0F3
:103280006FF8390006A80BF01DF9684906A80BF085
:1032900094F933002A000190210009A80BF0B6F937
:1032A00009A901980BF07CF9010038000BF0FAF83D
:1032B00009A80BF055F806A80BF052F801365A4948
:1032C00009A80BF09CF8320009A920000BF08EF938
:1032D000050009A80BF044F8390006A80BF0F2F835
:1032E000524906A80BF069F92B0032000190210029
:1032F00009A80BF08BF909A901980BF051F901000D
:1033000038000BF0CFF809A80BF02AF806A80BF04C
:1033100027F80135444909A80BF071F82A0009A9DA
:1033200020000BF063F9060009A80BF019F839002A
:1033300006A80BF0C7F83D4906A80BF03EF933008C
:103340002A000190210009A80BF060F909A9019851
:103350000BF026F9010038000BF0A4F809A80AF0D8
:10336000FFFF06A80AF0FCFF01362F4909A80BF061
:1033700046F8320009A920000BF038F9050009A829
:103380000AF0EEFF390006A80BF09CF8274906A8C2
:103390000BF013F92B0032000190210009A80BF06B
:1033A00035F909A901980BF0FBF8010038000BF082
:1033B00079F809A80AF0D4FF06A80AF0D1FF013570
:1033C0001B4909A80BF01BF82A0009A920000BF0E3
:1033D0000DF9019009A80AF0C3FF390006A80BF007
:1033E00071F8124906A80BF0E8F80600019B2A00C4
:1033F000210009A80BF00AF909A930000BF0D0F858
:10340000010038000BF04EF809A80AF0A9FF06A841
:103410000AF0A6FF390007480AF00CFE03A80AF0DC
:103420009FFF0DB0F0BDC046347601003676010036
:103430003E760100BC1700200023F0B50400BF4D0C
:10344000AFB00E0007A82900059206930AF0D7FF37
:1034500029000AA80AF0D3FF29000DA80AF0CFFF1F
:10346000290010A80AF0CBFF290013A80AF0C7FF13
:103470002000FFF7B7FC0490002800D1C5E0B04F52
:10348000B04D3900280005F087F8002800D1DDE0B4
:1034900006A92000FFF75AFC25A801233A002900BD
:1034A00005F034F825A804F0EEFE002800D125E14F
:1034B000069925A804F0ACFE0623039325A804F082
:1034C000C1FE002800D197E0039B013B0393002B32
:1034D00000D191E0271D50229B49380002F0C6FB25
:1034E000031E9A4800D184E022AD99490AF0ACFD50
:1034F0000A2225A928000AF01BFF290010A80AF0BB
:10350000EBFF28000AF02CFF129B10A8591E0BF0AD
:10351000B5F80A2225A928000AF00AFF290013A8F5
:103520000AF0DAFF28000AF01BFF159B13A8591EAA
:103530000BF0A4F813A928000AF0C4FF07AA290079
:103540002000FFF75BFC28000AF00AFF129B002214
:10355000043B10A916A80BF059F8D723DB00E1189B
:1035600019A80AF0AFFF07A91CA80AF0ABFF794918
:103570001FA80AF044FF784928000AF040FF1FAB5B
:1035800019AA16A9009301951CAB2000FFF7FEFABB
:1035900028000AF0E5FE1FA80AF0E2FE1CA80AF0C7
:1035A000DFFE19A80AF0DCFE16A80AF0D9FE3800E2
:1035B00002F07AFA00280CD0380002F03FFA002816
:1035C000F5D0380002F014FAC1B260480AF012FDDA
:1035D000EDE7FA20800008F0ADF8380002F020FA9C
:1035E00025A804F021FE010006902000FFF778FBDB
:1035F00064E75A490AF028FD25A804F023FE0500D7
:1036000025A8002D17D004F031FE310022A80AF0C1
:1036100059FF059925A80AF055FF25AA22A92000DF
:10362000FFF734FB25A80AF09BFE22A80AF098FEBB
:10363000002304936AE004F019FE29002000069597
:10364000FFF74EFB3E493F4804F0B2FF271D5022D2
:103650003D49380002F00AFB002869D025AD0599E4
:1036600028000AF02FFF07AA29002000FFF7C6FB59
:1036700028000AF075FEB36800223100043B19A847
:103680000AF0C4FFD723DB00E1181CA80AF01AFFD8
:1036900022AE07A91FA80AF015FF2E4930000AF034
:1036A000AEFE2D4928000AF0AAFE1FAB1CAA19A9DC
:1036B000019500962000FFF769FA28000AF050FEF5
:1036C00030000AF04DFE1FA80AF04AFE1CA80AF0BE
:1036D00047FE19A80AF044FE380002F0E5F9002878
:1036E00011D0380002F0AAF90028F5D0380002F015
:1036F0007FF9C1B215480AF07DFCEDE7184913487F
:103700000AF0A2FCA2E7380002F08AF913A80AF036
:1037100027FE10A80AF024FE0DA80AF021FE0AA830
:103720000AF01EFE07A80AF01BFE04982FB0F0BD99
:103730000A4906480AF088FC67E7C046A6850100EA
:10374000D9760100D80F0020B7760100BC17002001
:10375000907701009F770100A8770100BF770100F3
:10376000E676010010B5054905480AF06DFC054AEA
:103770000549064801F00CFB10BDC046A9790100BF
:10378000BC170020740B00201C030020380C002004
:10379000F7B5164D07002800019106F0A9F90400BD
:1037A000280006F09BF90600280006F08DF9FA23A0
:1037B000DB00E4180E4BA4B2E41876016402304337
:1037C00020433880280006F075F90400280006F030
:1037D00067F90600280006F059F97601E40234433F
:1037E000019B401020431880F7BDC046740B002099
:1037F00044F8FFFF4B6830B543608B68020083607C
:10380000CB680D00C360002310321035EC5CD4543B
:1038100001330D2BFAD10B6A036230BD30B597B07E
:10382000BC4901A80AF0EBFDBB4D04A80123BB4A2B
:10383000290004F06BFE04A804F025FD002838D010
:103840000A2204A90DA80AF073FDB54C0DA92000A9
:103850000AF042FE0DA80AF083FDA3682000591E5D
:103860000AF00CFF0A2204A90DA80AF061FDAD4C74
:103870000DA920000AF030FE0DA80AF071FDA36822
:103880002000591E0AF0FAFE0A2204A90DA80AF027
:103890004FFDA54C0DA920000AF01EFE0DA80AF050
:1038A0005FFDA3682000591E0AF0E8FE04A804F09A
:1038B000DDFC01239D4A29000DA804F027FE0DA977
:1038C00004A8FFF797FF04A804F0DDFC002800D14E
:1038D00085E00A2204A90DA80AF02AFD0DA901A875
:1038E0000AF0FAFD0DA80AF03BFD039B01A8591E42
:1038F0000AF0C4FE01A80AF0DAFE8D4C0A2220600C
:1039000004A90DA80AF014FD0DA901A80AF0E4FD10
:103910000DA80AF025FD039B01A8591E0AF0AEFE72
:1039200001A80AF0C4FE0A22606004A90DA80AF0EA
:10393000FFFC0DA901A80AF0CFFD0DA80AF010FDAB
:10394000039B01A8591E0AF099FE01A80AF0AFFED8
:103950000A22A06004A90DA80AF0EAFC0DA901A89A
:103960000AF0BAFD0DA80AF0FBFC039B01A8591E42
:103970000AF084FE01A80AF09AFE0A22E06004A977
:103980000DA80AF0D5FC0DA901A80AF0A5FD0DA807
:103990000AF0E6FC039B01A8591E0AF06FFE01A87D
:1039A0000AF072FE431E98410A22207404A90DA851
:1039B0000AF0BEFC0DA901A80AF08EFD0DA80AF0C0
:1039C000CFFC039B01A8591E0AF058FE01A80AF07B
:1039D0005BFE431E9841607404A804F047FC012379
:1039E000544A4D490DA804F091FD0DA904A8FFF714
:1039F00001FF04A804F047FC002800D185E00A225A
:103A000004A90DA80AF094FC0DA901A80AF064FD10
:103A10000DA80AF0A5FC039B01A8591E0AF02EFE72
:103A200001A80AF044FE444C0A22206004A90DA813
:103A30000AF07EFC0DA901A80AF04EFD0DA80AF0BF
:103A40008FFC039B01A8591E0AF018FE01A80AF07A
:103A50002EFE0A22606004A90DA80AF069FC0DA9D7
:103A600001A80AF039FD0DA80AF07AFC039B01A811
:103A7000591E0AF003FE01A80AF019FE0A22A060EE
:103A800004A90DA80AF054FC0DA901A80AF024FD10
:103A90000DA80AF065FC039B01A8591E0AF0EEFD73
:103AA00001A80AF004FE0A22E06004A90DA80AF0A9
:103AB0003FFC0DA901A80AF00FFD0DA80AF050FC6B
:103AC000039B01A8591E0AF0D9FD01A80AF0DCFDEC
:103AD000431E98410A22207404A90DA80AF028FC6C
:103AE0000DA901A80AF0F8FC0DA80AF039FC039B07
:103AF00001A8591E0AF0C2FD01A80AF0C5FD431E27
:103B00009841607404A804F0B1FB01A80AF028FCF5
:103B100017B030BDA6850100D80F0020667A0100DD
:103B2000280C0020680B002044030020707A01005C
:103B3000080000207B7A01001C00002030B597B0FF
:103B400004A804F057FB2D4C2D4D2000290004F053
:103B50002FFD17232A0021000DA804F0D7FC0DA982
:103B600004A8FFF747FE04A804F08DFB254C0028AD
:103B700032D020680EF0C6FD022502000B00009531
:103B800004A80AF09FFB60680EF0BCFD00950200DF
:103B90000B0004A80AF096FBA0680EF0B3FD0135F7
:103BA00002000B00009504A80AF08CFBE0680EF000
:103BB000A9FD00950B00020004A80AF083FB217CFC
:103BC0000A2204A80AF0A1FA617C0A2204A80AF0D9
:103BD0009CFA04A804F04AFB0B4B10210293636883
:103BE0000A4801930A4B00932368A268FEF70AFB78
:103BF000084909480AF028FA17B030BDD80F00204C
:103C0000707A0100080000201B2F5540780B00201F
:103C100000007A44B0790100BC17002030B597B09D
:103C200004A804F0E7FA2D4C2D4D2000290004F0E3
:103C3000BFFC17232A0021000DA804F067FC0DA982
:103C400004A8FFF7D7FD04A804F01DFB254C0028AD
:103C500032D020680EF056FD022502000B000095C0
:103C600004A80AF02FFB60680EF04CFD00950200DE
:103C70000B0004A80AF026FBA0680EF043FD0135F6
:103C800002000B00009504A80AF01CFBE0680EF08F
:103C900039FD00950B00020004A80AF013FB217CFB
:103CA0000A2204A80AF031FA617C0A2204A80AF068
:103CB0002CFA04A804F0DAFA0B4B11210293636882
:103CC0000A4801930A4B00932368A268FEF79AFA08
:103CD000084909480AF0B8F917B030BDD80F0020DC
:103CE0007B7A01001C0000201B2F5540C40B0020D4
:103CF00000007A44C1790100BC170020F7B5284FB5
:103D00003B7C002B0FD0274D274928000AF09CF957
:103D10000021F8680BF0F8FF244E041E04D00021A7
:103D2000300000F051FFF7BD30000A2100F04CFFD9
:103D3000300000F063FFFA20800007F0FBFC1C4914
:103D400028000AF053F9300000F05DFF0EF0DAFCB5
:103D50000B0003210200009128000AF0B3FA0122AF
:103D6000F968300000F064FF0028DCD11149280018
:103D70000AF03CF9300000F055FF0EF0C3FC0B00D8
:103D800002210200009128000AF09CFA21000A2278
:103D9000280001340AF0B9F9142CCCD1C3E7C0468D
:103DA00008000020BC170020D27901005003002039
:103DB000F5790100087A0100F7B5284F3B7C002B0C
:103DC0000FD0274D274928000AF03EF90021F86856
:103DD0000BF09AFF244E041E04D00021300000F0A6
:103DE000F3FEF7BD30000A2100F0EEFE300000F0D7
:103DF00005FFFA20800007F09DFC1C4928000AF00E
:103E0000F5F8300000F0FFFE0EF07CFC0B00032103
:103E10000200009128000AF055FA0122F9683000EA
:103E200000F006FF0028DCD1114928000AF0DEF876
:103E3000300000F0F7FE0EF065FC0B0002210200DE
:103E4000009128000AF03EFA21000A2228000134DD
:103E50000AF05BF9142CCCD1C3E7C0461C0000204B
:103E6000BC1700201C7A0100F80300203F7A0100F3
:103E7000527A010037B5154C2000FEF7B3FF002839
:103E80000FD02000FEF74EFC114D124B0095124A48
:103E900012492000FEF76EFC2B68012B02D1104A5C
:103EA000137037BD022B03D100220D4B1A70F8E7B7
:103EB000032B04D1FFF722FFFFF740FEF1E7042BAD
:103EC000EFD1FFF779FFFFF7A9FEEAE7A40400208E
:103ED000340C0020300000201C00002008000020CE
:103EE000240C0020F8B54E4D280000F013FF4D4C77
:103EF0004D49220028000AF01DFC4C4D2D222C219A
:103F00002800FEF7FBF84A4E2200310028000AF094
:103F100011FC484D2F222E212800FEF7EFF8220039
:103F2000310028000AF006FC434D4021280000F033
:103F3000E5FD424E2200310028000AF0FBFB404D17
:103F40004121280000F0DAFD2200310028000AF0AB
:103F5000F1FB3C4805F05AFC3B4E3C4F3100380029
:103F60000AF04DFA3A4D2200290038000AF0E2FB2F
:103F7000384F310038000AF042FA29002200380098
:103F80000AF0D8FB344F380001F048F822003349DA
:103F900038000AF0CFFB324F380000F09DFD2200C0
:103FA000304938000AF0C6FB2F4F3800FEF72EFAD2
:103FB00022002E4938000AF0BDFB2D4F3100380099
:103FC0000AF01DFA2200290038000AF0B3FB294F3D
:103FD000310038000AF013FA2200290038000AF0F4
:103FE000A9FB254E254930000AF009FA22002900D4
:103FF00030000AF09FFB224E224930000AF0FFF900
:104000002200290030000AF095FB1F4E1F493000A6
:104010000AF0F5F92900300022000AF08BFBF8BD08
:10402000380C002000000020174D0000780B002005
:1040300029210000C40B0020500300205D4B00002C
:10404000F8030020740B0020A68501001C0300204B
:1040500061E3000010030020100C0020415000001C
:1040600040030020DB4A0000A4040020C525000016
:104070002803002034030020280C0020847901004C
:10408000680B00209A79010044030020A479010004
:104090009621F0B55B4C8DB08901200008F0D6FA6E
:1040A000200008F023FC0028FAD05749200009F02E
:1040B000CBFF564F0421380000F02EFE544EFFF780
:1040C000ADFB5449200009F0BFFF534A02965368E4
:1040D000524D019300951368102192685048FEF7E5
:1040E00091F85049200009F0AFFF4F4A02965368FB
:1040F000009501931368112192684C48FEF782F8ED
:104100004B49200009F0A0FF01220221494800F09C
:1041100027FD4949200009F097FF05220321474860
:1041200000F01EFD464D0721280000F0D7FC454B4E
:104130002800197800F0D9FC4349200009F084FFD9
:10414000424800F08BFF424D0021280005F00AFD97
:10415000002307211A00280005F0C0FB16230822BF
:104160000121280005F006FC3A4906A80AF0AAF940
:10417000394909A80AF0A6F9384E032309AA06A965
:104180003000FEF733FA059009A80AF0E9F806A80E
:104190000AF0E6F8059B002B08D029003000FEF756
:1041A00089FC002802D001222D4B1A702D4909A844
:1041B0000AF088F909A92948FEF7ACFA09A80AF01B
:1041C000CFF8002328001A00190005F021FC280070
:1041D000032105F02DFB2800234905F03DFB234B6F
:1041E000234E244A31001A6038002A0000F0D0FD26
:1041F0003100200009F01EFFFFF780FDFFF7DCFD16
:104200000DB0F0BDBC170020CA7A0100380C0020A8
:104210001B2F5540DD7A01000800002000007A4481
:10422000780B0020F97A01001C000020C40B00204C
:10423000157B010050030020307B0100F8030020B3
:1042400040030020300000204B7B0100100C0020B8
:10425000740B0020280C0020680B0020A404002010
:10426000440C002044030020653700004810002063
:104270001C0300209137000070B598B0C64968460D
:104280000AF0BDF8C54C200008F01EFB050006A88A
:1042900003F0B0FFE9B2200009F0E0FEE8B24138D7
:1042A00016282FD80BF066FBEA012E00BA002E006C
:1042B0002E001B002E002E002E002E002E002E00A1
:1042C0002E002E007D0033002E002E0017002E0041
:1042D0002E00E8011E00B24B01221A7012E0B04B12
:1042E0000022FAE721000FA80AF00EF8AD4D0FA941
:1042F00028000AF0F1F80FA80AF032F8290020008F
:1043000009F098FE68460AF02BF818B070BD21003D
:104310000FA809F0F9FFA44D0FA928000AF0DCF856
:104320000FA80AF01DF82900200009F083FE9F4C19
:104330009F4E2000310004F03BF91723320021008A
:104340000FA804F0E3F80FA906A8FFF753FA06A890
:1043500003F099FF934C00280ED0210006A809F025
:1043600069FE290006A809F065FE924906A809F031
:1043700061FE06A803F07AFF21000FA80AF0A2F858
:10438000894903A80AF09EF8012303AA0FA98A48C5
:10439000FEF72CF903A809F0E3FF0FA809F0E0FFEE
:1043A000B0E721000FA809F0AFFF824D0FA9280048
:1043B0000AF092F80FA809F0D3FF2900200009F0B5
:1043C00039FE7B4E794C3100200004F0F1F81723C0
:1043D000320021000FA804F099F80FA906A8FFF7F2
:1043E00009FA06A803F04FFF00280ED06D4906A871
:1043F00009F020FE6C4906A809F01CFE290006A859
:1044000009F018FE06A803F031FF29000FA80AF0F2
:1044100059F80FA96848FEF77DF9BEE7200008F0BB
:1044200053FAC5B2200008F04FFAC0B2472851D065
:104430000ADC412800D1C5E0442872D0312D30D0AB
:10444000322D00D05EE742E0522818D0562800D125
:10445000E7E04828F2D1312D00D089E021000FA8F3
:1044600009F052FF0FA968460AF036F80FA809F0C4
:1044700077FF68460AF01BF9504BD86011E0312DE8
:1044800012D121000FA809F03FFF0FA968460AF0DA
:1044900023F80FA809F064FF68460AF008F9474BB3
:1044A0001860FFF74BFB2DE7322D00D02AE72100E3
:1044B0000FA809F029FF0FA968460AF00DF80FA808
:1044C00009F04EFF68460AF0F2F83D4B1860FFF71E
:1044D000A5FB17E7312D10D121000FA809F014FF1B
:1044E0000FA9684609F0F8FF0FA809F039FF6846E0
:1044F0000AF0DDF8314B5860D3E7322D00D001E7E8
:1045000021000FA809F000FF0FA9684609F0E4FF99
:104510000FA809F025FF68460AF0C9F8284B586033
:10452000D5E7312D10D121000FA809F0EDFE0FA91C
:10453000684609F0D1FF0FA809F012FF68460AF09B
:10454000B6F81E4B9860ACE7322D00D0DAE62100B9
:104550000FA809F0D9FE0FA9684609F0BDFF0FA802
:1045600009F0FEFE68460AF0A2F8154B9860AEE727
:10457000322D00D0C6E621000FA809F0C5FE0FA914
:10458000684609F0A9FF0FA809F0EAFE68460AF09C
:104590008EF80B4BD8609AE7A6850100BC17002067
:1045A000240C0020280C0020680B0020D80F0020CD
:1045B000667A010044030020A404002008000020C3
:1045C0001C000020312D14D121000FA809F09CFE01
:1045D0000FA9684609F080FF0FA809F0C1FE6846E0
:1045E0000AF052F8431E9841254B1874FFF786FBDA
:1045F00057E7322D00D085E621000FA809F084FE90
:104600000FA9684609F068FF0FA809F0A9FE6846DF
:104610000AF03AF8431E98411A4B1874FFF7CCFB86
:1046200055E7312D12D121000FA809F06DFE0FA919
:10463000684609F051FF0FA809F092FE68460AF09B
:1046400023F8431E98410E4B58742AE7322D00D0B0
:1046500058E621000FA809F057FE0FA9684609F097
:104660003BFF0FA809F07CFE68460AF00DF8431ED8
:104670009841044B58742AE7034B2DE6024B2FE672
:10468000080000201C0000203000002010B5044865
:1046900008F0DEF8002801DDFFF7EEFD10BDC04692
:1046A000BC170020F0B5E54B8DB01978E44800F058
:1046B0001CFAFFF7DFFBFFF7E9FFE24B1B78002B4B
:1046C00000D007E2E04A1278002A00D1A0E0DE4ADA
:1046D0000125137006F0F8FF0326DC4B1860DC4C54
:1046E000DC49200009F082FCDB4F380000F08BFA37
:1046F0000EF008F8009602000B00200009F0E2FD21
:10470000D64B1A7C002A04D00022D968380000F069
:104710008FFAD349200009F069FC380000F082FAD2
:104720000DF0F0FF0B00022102000091200009F0C3
:10473000C9FDCC49200009F059FCCB4F380000F0EE
:1047400062FA0DF0DFFF009602000B00200009F076
:10475000B9FDC64B1A7C002A04D00022D968380063
:1047600000F066FAC249200009F040FCBE4800F0A3
:1047700059FA0DF0C7FF0B00022102000091200042
:1047800009F0A0FDBB49200009F030FCBA4F380009
:10479000FDF7BEFDB9490BF0DFFC0DF0B3FF00964D
:1047A00002000B00200009F08DFD29003800FDF704
:1047B00017FEB349200009F019FCB24F3800FDF78D
:1047C000A7FDAE490BF0C8FC0DF09CFF009602005F
:1047D0000B00200009F076FD29003800FDF700FEEF
:1047E000A949200009F002FC0135A84806F0A2FF03
:1047F0000C2D00D073E7A649200009F0F7FB06F066
:1048000063FFA44B0A221968411A200009F097FCA3
:1048100006F05AFF9F4E3368C01A9F4B984200D84B
:1048200058E1894B1B78002B00D053E19B4D864A01
:1048300001332800137000F009FC854809F0E8FBFB
:104840008D48FDF7CBFD8D490BF086FC944C206024
:104850008C48FDF7C3FD89490BF07EFC60602800A1
:1048600000F0FAFBA060280000F0F4FB7A4FE06053
:10487000380000F0C8F97C4D2061280000F0C3F931
:104880006061380000F0CEF9A061280000F0CAF99C
:10489000724F764DFB68E0612362EB687749636293
:1048A00038680BF059FC7549A06228680BF054FC7D
:1048B0007249E06278680BF04FFC704920636868C9
:1048C0000BF04AFCBB686063A363AB68E3637B7C6B
:1048D000002B0ED06848FDF781FD011C6648FDF7EE
:1048E000C7FC002805D06448FDF764FC3860FFF77A
:1048F00025F96B7C002B0ED06248FDF76FFD011C83
:104900006048FDF7B5FC002805D05E48FDF752FC75
:104910002860FFF783F95E494D4809F067FB06F010
:10492000D3FEFA2133688900C01A0BF02DF80A2251
:104930000100474809F003FC06F0C6FE594D3060FF
:10494000290009A809F0BEFD574B584A01931023CE
:1049500009A900935648230000F080FA09A809F03D
:10496000FFFC544E3000FEF73DFA041E18D15249A8
:1049700006A809F0A7FD514909A809F0A3FD0123E4
:1049800009AA06A93000FDF731FE060009A809F0C2
:10499000E7FC06A809F0E4FC002E01D0484B1C708F
:1049A000290006A809F08EFD3F4903A809F08AFDF9
:1049B000444903A809F001FE010009A809F082FD9D
:1049C0003C4C09AA06A92000FEF736FD09A809F00B
:1049D000C7FC03A809F0C4FC06A809F0C1FC384EC6
:1049E0003378002B12D12000FEF7FCF900280DD0FF
:1049F0002E4F20003900FEF75DF8002806D03A005F
:104A000029002B4800F0C4F9012333702E4C2F4DA0
:104A100023682F49013323602B680D4801332B6035
:104A200009F0E4FA0A222968094809F06EFB2368B4
:104A3000052B4FD1002323604CE0C04630000020FE
:104A400040030020240C0020040000203C0C002027
:104A5000BC170020F5790100500300200800002059
:104A6000087A01003F7A0100F80300201C000020B2
:104A7000527A0100867A0100780B002000007A4407
:104A80009C7A0100C40B0020F3790100C4090000E6
:104A9000B27A0100400C0020A7DE0000100C0020BC
:104AA000480C00201C03002034030020740B00205D
:104AB000380C0020A4040020280C0020680B0020E3
:104AC000440C0020BA7A01000C030020A00400204E
:104AD000C07A01000DB0F0BD7047704710B501609D
:104AE000C8B2012107F07EF910BD006810B5C0B250
:104AF000002900D0012107F0C1F910BDD0B5002672
:104B0000124F8AB00400083006F052FB089609974D
:104B100000260F4F23000696079700260D4F220010
:104B20000496059700260C4F21000296039720005B
:104B3000002600273033283220310096019740307C
:104B400006F037FA20000AB0D0BDC046000044404D
:104B50000000494000006940008056407047000056
:104B600037B504002500016042600835C8B2012154
:104B700007F038F9280006F0C3FB002803D00C49E1
:104B80000C4809F061FA072300220193083328003A
:104B90000093110006F090FB074B2800009383233D
:104BA000064ADB05064906F025FB064BA36337BD25
:104BB000787B0100BC170020CDCCCC3E0AD7233D2A
:104BC000CDCCCC3DF6289C3F10B5040008000DF07C
:104BD0002DFD0022074B0CF013FB0022064B0CF0BE
:104BE00019FF0DF0EDFC01002068C0B207F010F8CD
:104BF00010BDC0460000594000F88F4010B540304D
:104C000006F0F2F910BD70B50400083006F0D4FBD0
:104C1000A16B0BF0A1FA051C0DF074FD206261621E
:104C2000281C70BD10B5083006F0B4FB10BD0000A4
:104C3000F0B5040085B0081C15000DF063FD0200FE
:104C40000B00206A616AA262E3620DF055F900224E
:104C5000002306000F000BF037F86A460123D373D8
:104C6000274A002828D0274B300039000BF02CF8B9
:104C7000002801D16B46D8736B46DB7B002B21D01B
:104C80002000403006F0BCF9206B616B0DF098FC01
:104C900001002000FFF798FF1B4D1C49280009F078
:104CA000A5F9226B636B02212800009109F00AFB31
:104CB0000025280005B0F0BD154B300039000AF082
:104CC000EFFFD5E7002D18D02000403006F098F90E
:104CD000206B616B0DF074FC01002000FFF774FF86
:104CE000094E0A49300009F081F9226B636B0221F9
:104CF0003000009109F0E6FADBE70125D9E7C0466C
:104D00007B14AE47E17A743FBC170020727B010030
:104D1000E17A74BF7047704710B5C9B2054803F017
:104D20005FFB041E03D10449044809F08DF92000FB
:104D300010BDC046D80F0020D97B0100BC17002051
:104D400030B5040087B01500092A19DC0F4903A803
:104D500009F055FB0A222900684609F06FFB6946F5
:104D600003A809F01DFC0100200009F0ABFB684618
:104D700009F0F6FA03A809F0F3FA200007B030BDF5
:104D80000A22290009F05AFBF7E7C046328B0100DE
:104D9000F0B5150093B004000E0003A8294909F0EE
:104DA0002EFB280004F0A4FE210002006846FFF755
:104DB000C7FF694603A809F0F3FB0700280004F0C9
:104DC0008DFE2100020006A8FFF7BAFF06A93800F1
:104DD00009F0E6FB0700280004F076FE210002003F
:104DE00009A8FFF7ADFF09A9380009F0D9FB16495A
:104DF00009F0E3FB0100300009F054FB09A809F0B9
:104E0000AFFA06A809F0ACFA684609F0A9FA03A8B7
:104E100009F0A6FA0D491723326809A803F076FBBA
:104E200009A803F030FA0A4D041E0A4903D009A864
:104E300003F01CFA0849280009F006F9200013B015
:104E4000F0BDC046048B0100767A0100D80F002027
:104E5000BC170020C37B0100A67B0100F0B5040055
:104E6000A1B0100003931500029104F02DFE210063
:104E7000020005A8FFF764FF05A908A809F022FBB6
:104E8000554E08A8310009F098FB0700280004F0EF
:104E900025FE210002000BA8FFF752FF0BA93800E6
:104EA00009F07EFB310009F088FB0600280004F0C1
:104EB0001FFE210002000EA8FFF742FF0EA93000DE
:104EC00009F06EFB454F390009F077FB060028001A
:104ED00004F0F0FD2100020011A8FFF731FF11A935
:104EE000300009F05DFB3E4E310009F066FB019099
:104EF000280004F0D5FD2100020014A8FFF720FFD0
:104F000014A9019809F04CFB310009F056FB06008A
:104F1000280004F0BBFD2100020017A8FFF710FFD6
:104F200017A9300009F03CFB0100279809F0BAFAF4
:104F300017A809F015FA14A809F012FA11A809F037
:104F40000FFA0EA809F00CFA0BA809F009FA08A844
:104F500009F006FA05A809F003FA224D22492800B3
:104F600009F044F82799280009F064F80024269BEA
:104F70009C4215DA279917A809F0A4FA390017A856
:104F800009F01BFB039AA300D15809F024FB010090
:104F9000279809F087FA17A809F0E2F90134E6E743
:104FA000029A17231268114917A803F0AFFA17A83D
:104FB00003F069F9041E09D0279917A809F03AF8F7
:104FC00017A803F053F9200021B0F0BD08492800CC
:104FD00009F03AF8F7E7C0467E7601003476010022
:104FE0003B780100BC1700209E7B0100D80F0020F9
:104FF000E676010010B50400024B036005F048F9A5
:10500000200010BD007C010010B50400FFF7F2FF86
:10501000200009F077FB200010BD0000054B036065
:10502000002303718360044B1B68C360034B1B6840
:1050300003617047007C0100D07E0100C87E010042
:1050400010B50400FFF7D6FF200010BD10B505F025
:105050000DF910BD00697047C068704770B5050054
:10506000074C200004F028FE2100280005F01CF960
:10507000002803D10349044808F0E6FF70BDC0468C
:105080005C120020087C0100BC17002070B50600EF
:105090000C008D18AC4207D0336821789B68300033
:1050A000984720700134F5E770BD7047704710B520
:1050B0000400406807F064F80023237610BD10B5A3
:1050C000406807F082F810BDF8B5050040680C0094
:1050D00007F076F82B68E7B2260A9B68012810D102
:1050E00039002800FF2798472B68BC4304439B687E
:1050F000310028009847030220003840184380B24E
:10510000F8BD310028009847FF262B680002344084
:1051100004439B68390028009847B4432043EEE7D6
:1051200010B5040009F0EEFA200010BD10B54B1CBC
:105130000BD0102909D0EFF3108472B6102905DDC9
:1051400002234376002C00D162B610BD0123427EBB
:105150001A43427618224A430449891816228A566D
:105160009340C2691343C361ECE7C046308101003C
:105170004B1C17D0102915D0437E9B0712D4EFF398
:10518000108272B618234B430749C9180123897D41
:1051900049B28B40C1699943C16100D14176002A6F
:1051A00000D162B67047C04630810100437E002BBB
:1051B00005D09A0704D5837E002B00D062B67047D5
:1051C000DB07FCD5C369024A9BB2D360F7E7C04650
:1051D00000180040037E002B04D143768376C36120
:1051E00001330376704700007FB5036902AE040007
:1051F0000D00029172608B4203D1828AB3889A4279
:1052000026D020000622310010300DF0FAFB606835
:1052100006F0CDFF7379E17A013B581E8341227B72
:1052200000936068002307F05FF933790021013BA8
:10523000DBB2022B01D8074AD15C074B2A009D4202
:1052400000D91A00606806F083FF606806F0A5FFC9
:105250007FBDC0462C7C0100001BB70070B518262E
:105260000400FFF7B7FF33000821207A0D4D4343B8
:10527000EB18595606F02EFE33000821A07A43435E
:10528000EB18595606F026FE0821607A4643AD1900
:10529000695606F01FFE044B200006CBFFF7A4FF63
:1052A00070BDC04630810100C80C002007B5437EA8
:1052B00000910192002B07D09A070AD5EFF31083D3
:1052C0005A425341837672B60099019AFFF78CFFD8
:1052D00007BDDB07F8D5C369014A9BB29360F3E7CA
:1052E00000180040F7B500240125194B194A5D71DB
:1052F0001A601C71184B1948083301930360184B4E
:10530000184F4360184B194E038109233A003100AE
:105310004575046104758372063B0476C472037399
:1053200009F008FA1248134B019A4360124B457575
:1053300003811B233100026004613A00047583720B
:10534000183B0476C472037309F0F4F9F7BDC04644
:10535000C80C002000093D00307C0100880C0020B2
:10536000F4160020000000200A080000AD500000E4
:10537000A80C00200C1700201D1A0000014B196218
:105380007047C046D00C002010B502F09DFE10BD45
:1053900030B587B0040000F0A5FC134B68460093BD
:1053A00001F0DEF8051E02D003000D3319D102F022
:1053B0007DF90E490E4802F095F9210000230122E3
:1053C000293122600B70E2610A4A23616361A361A3
:1053D000236263621268084B9A4202D9D32000F01C
:1053E000A5FF280007B030BDCD5800007D53000058
:1053F00089530000600D00204F130000F8B50368CA
:105400000400002B01D1FFF7C3FFE369002B03D099
:10541000002323616361A361250001F0DDF82935D4
:10542000002802DA04202870F8BD002326002B7023
:1054300028360133337006F047F9070006F044F9C7
:10544000236FC01B984206D2002001F0C1F807224A
:105450002B781342F2D0200021224D3000210DF094
:10546000ECFA03222B78134002D133702878DBE763
:1054700001F0B4F9002001F0ABF8F7E7F0B51F0038
:10548000036885B004000D001600002B01D1FFF762
:105490007FFFE369002B03D0002323616361A361D5
:1054A00028000EF0BBFAFF23C1B2009332003B008C
:1054B0002800260001F027F92936002805DA042300
:1054C00033701E00300005B0F0BD0023270033709C
:1054D000283701333B7006F0F7F8039006F0F4F834
:1054E000039BC01A236F984206D2002001F070F887
:1054F000072233781342F1D003233678334000D1AA
:105500003B704D342122002120000DF096FA280036
:105510000EF084FA2900020020000DF072FAD1E7A3
:1055200010B513000222FFF7A9FF10BDF0B51F0050
:105530000368A5B004000D001600002B01D1FFF791
:1055400027FF8822002102A80DF077FA290002A87F
:105550000EF05CFA02AB0233DF773F230122002713
:1055600002A95B181A70412012AB1F70C0230918E2
:105570000B7002A97E3B5B18A8211970432302A976
:105580005B181A70310013AB02A81A70260001F0E4
:10559000DDF82936B84203DA0B20307025B0F0BDB3
:1055A0000A2333702300022228331A70253318008F
:1055B0001F32390001930DF040FA28000EF02EFA48
:1055C0002900020001980DF01CFA4123200002A9D5
:1055D0005B1810301900042200F04EFC024B63618E
:1055E0002369A3613078D9E7FFFFFF0037B56D4627
:1055F00008000C0001F09CF8280001F099F8002345
:10560000EA1A5279E2540133062BF9D120003EBD4B
:1056100000697047030029331B78032B03D0073B35
:105620000022012B01D802004D321000704700000B
:10563000030070B528331B780500002B1ED0002412
:10564000002000F0C5FF2C6201F066F80300200086
:10565000A34212DB06F038F806002C6A002C09D1B0
:1056600006F032F8074B801B984203D8200000F068
:10567000AFFFF2E70023286A2B6270BD642040422E
:10568000FBE7C046E703000010B503680400002BE9
:1056900001D1FFF77DFE2934002000F099FF20782A
:1056A00010BD000030B587B004000D00FFF7A6FE66
:1056B000032811D069462000FFF798FF6B466A4621
:1056C0001B785278074902A80EF068F92B00064AA9
:1056D00002A92000FFF72AFF2000FFF7D5FF07B03F
:1056E00030BDC0466C7C01007D7C010010B50121FD
:1056F000FFF7D8FF10BD0000F0B5040085B015001D
:10570000132900D1A1E011D8062900D1C8E003D89F
:10571000042965D005B0F0BD092965D01129F9D15A
:105720001378002BF6D02934022325E02A291DD036
:105730000AD81B29EED1006A0028EBD008222900E4
:105740000DF05FF900234DE02C2917D03229E1D16B
:10575000030028331B78012BDCD113682934036143
:10576000D368436153688361032305E00023D35664
:10577000002BCFD0062329342370CBE71378012BDD
:105780000FD1030028331B78012B05D1C369002BEF
:10579000C0D129340333EFE7032BBBD129340533C0
:1057A000EAE7002BB6D1020028321278012A12D182
:1057B0000200062129321170C269002A02D0036159
:1057C00043618361002461B23F48013402F000FB71
:1057D0000B2CF8D19EE7032A9CD129340723CBE771
:1057E0000023D356236295E7130063331E78002EFF
:1057F00024D107004D373100212238000DF01DF96A
:1058000028000EF00BF92900020038000DF0F9F81D
:105810002300012228331A70280026616661A661E0
:105820000EF0FCF82A002B00C1B2FF206232127881
:1058300021330090280000F066FF6BE703000B2285
:1058400029331A70FFF752FF64E713000A33180078
:1058500003930EF0E3F8270006002A3721220021E7
:1058600038000DF0EAF8B3B2002B04D01A00039907
:1058700038000DF0C6F8636A002B07D00023EA1A3F
:10588000527A616ACA540133062BF8D10123EB56D0
:1058900023622300AA784B331A70EA785A7042E7E1
:1058A000436A002B0AD000232B321178606A013A38
:1058B000C1540133062BF8D1002363622000290074
:1058C0004D300EF0A3F825E76C0D002010B50A004E
:1058D00001000248FFF710FF10BDC046D00C0020A9
:1058E000F8B5040010000E00150008F089FA012335
:1058F000002806D12062300002F086F8002802DA83
:1059000000231800F8BD05F0DFFE0700266A002E10
:1059100009D105F0D9FE094BC01B984203D83000CD
:1059200000F056FEF2E7216A0029E9D0280008F0CD
:105930009AFA002323620133E3E7C0461F4E0000BA
:1059400070B58CB001AC0462050000F053FF05F0A7
:10595000BBFE06002B6A002B09D005F0B5FE134BE9
:10596000801B984203D8002000F032FEF2E70020AE
:105970002B6A834216D12388834213D00C4A03A892
:105980009B180893A378013B0793E3780693237948
:10599000059363790493A379039301235B420B93EB
:1059A0000DF01EF900232B620CB070BD87130000B0
:1059B00094F8FFFF064B0022190028310A701A6084
:1059C0001A00FF2129321170024A1A677047C04637
:1059D000D00C002060EA00000020704713B56B4631
:1059E0000268D9710733546819000122A04716BD17
:1059F00013B56B46DC1D036801225B6A21009847E2
:105A0000012801D1207816BD01204042FBE77047F4
:105A1000007C40B20130431E9841C0B27047000084
:105A2000102110B541560400002904DB024802F0A1
:105A3000CFF9FF23237410BD6C0D0020102110B589
:105A4000415600204B1C02D0014802F07AF910BDEB
:105A50006C0D0020036870B51B6904000D00160072
:105A6000984780B2002807D01021330061562A00E1
:105A7000034802F048FA70BD01204042FBE7C046EF
:105A80006C0D0020036810B51B69040098470028BE
:105A900005D010210348615602F00AFA10BD01201A
:105AA0004042FBE76C0D0020102110B5415600204C
:105AB000814202DB014802F035F910BD6C0D002077
:105AC000102213B58A560400531C07D100210091FF
:105AD0000B000A0008F07EF9200016BD014902F013
:105AE00044F9F9E76C0D0020102170B5415606000D
:105AF00000204B1C0DD0074D280002F040F910216A
:105B000004007156280002F03AF9240200122043E2
:105B100080B270BD6C0D002070B5037C04000E00D7
:105B200015007F2B06D8002A04D00368DB6A98474B
:105B3000002804D1012300256360280070BD1021D6
:105B40002B0061563200034802F01EF90028F4DCF5
:105B5000F0E7C0466C0D002000234360FA239B0051
:105B60008360034B08330360FF2303747047C04610
:105B7000887C0100F0B589B00393022304AE338022
:105B80004B6852BA736003687280DB6A04009847FE
:105B9000002803D0236820009B6A9847194D039B77
:105BA00001220221280002F065F80700207400207D
:105BB000874224DB039BDB070ED50E9B83420BD071
:105BC000180000F06BF90E9B01900093022339003E
:105BD0001A00280002F05FF81021320061561023ED
:105BE000280002F063F806000120002E07D11021E2
:105BF0002800615602F0ECF8FF233000237409B04E
:105C0000F0BDC0466C0D00207FB5064B04934B6879
:105C100004A90393059300230093FFF7ABFF07B09C
:105C200000BDC04694850100F0B50C0089B00500A8
:105C300004A816001F0008F0C5F804AA21000948AE
:105C4000FFF74EFE00280BD0074B00940693059BF0
:105C500032000393079306A93B002800FFF78AFF51
:105C600009B0F0BDD00C00209485010010B50023D0
:105C7000FFF7DAFF10BD7047034B10B51B68002B10
:105C800000D0984710BDC046440D002010B5D2B2D8
:105C9000C0B205F0E5FB10BD10B5C0B205F078FC50
:105CA00010BD10B50400013C00D210BD012005F06C
:105CB00041FDF8E7002010B5094C205600280DDB07
:105CC0000021C0B206F0DAF86420FFF7EAFF20787E
:105CD000012106F0D3F86420FFF7E3FF10BDC046B2
:105CE000340000200022002010B5104B104C1A6028
:105CF0002056904207DBC0B2012106F073F82078ED
:105D0000012106F0BBF80B4B0021187806F06AF869
:105D10000020094B1856002803DBC0B2022106F010
:105D200061F8FFF7C7FF002010BDC046440D0020FA
:105D3000340000203300002031000020054B10B556
:105D400018600020044B032218560449FFF79EFFF9
:105D500010BDC046440D002033000020795C0000D7
:105D60000300002010B5064A1056002B04D0032271
:105D70000449FFF78BFF10BDFFF78EFFFBE7C0461E
:105D800033000020795C0000034B044A1A600022B3
:105D90001A7101325A717047480D0020001BB7007C
:105DA00010B50948FFF75AFA084C0121207806F08F
:105DB00019F82078012106F061F8FFF77BFF012038
:105DC000FFF76FFF002010BDA80C0020320000205C
:105DD000F0B585B003283ED1002202AB0D68073331
:105DE0000C894E681A70954222D0964230D10196A5
:105DF0001E0001320092194B194F06CB3800FFF7F5
:105E000055FA184B0021187806F038F8002C14D0F9
:105E100029783800FFF753F9009B30705A425341FC
:105E2000F618019B013C5A425341A4B2ED18EDE72C
:105E30000122009501921D00DDE70A4B012118782F
:105E400006F01CF83800FFF7B1F9200005B0F0BDEE
:105E500006204042FAE70120FBE7C046480D00203B
:105E6000A80C00203200002010B50248FFF71FF9EF
:105E7000002010BDA80C002010B5002A05D000237A
:105E8000CC5CC45401339A42FAD110BD002A04D02C
:105E90008218017001308242FBD170470023C15C3F
:105EA0009AB201330029FAD110007047024AD37820
:105EB0000133DBB2D3707047201E00207047000012
:105EC000002307B50A4A012013700A4A9370FFF7AE
:105ED00047FF01A9084800F08BFE002806D10221E7
:105EE000019B05481943019100F086FE0EBDC04696
:105EF000500D0020201E002070100000002010B562
:105F00000A4CA378834207D16378834205D00020EE
:105F100063780133DBB2637010BD2378002BF6D0B9
:105F200000F030FD0028F2D0F6E7C046201E002029
:105F3000044A5378002B03D05378013BDBB25370F3
:105F400000207047201E002010B5094B5A78002A07
:105F500003D05A78013AD2B25A7000205A7882425D
:105F600004D11B78834201D000F0DEFC10BDC04696
:105F7000201E002010B5064C282200212000FFF72B
:105F800085FF0448FFF7DAFE034B0020E36110BDF4
:105F9000201E0020AD5E0000BD5E0000F0B58DB09B
:105FA000019312AB049204CB070002927F221B885C
:105FB0000A40039314AB1B880D00059308AB5A707D
:105FC000082218705A80029A002A45D003995A88EC
:105FD00052180599521892B25A80FFF78FFF041E8B
:105FE00037D106AB0A90D88009909E1D099B2D02DF
:105FF0001F430997099B49481D43099508AD6B88C4
:10600000099A1B0413430993099900F0F5FD041E36
:1060100038D102270990099B41483B4309930999CC
:1060200000F0EAFD041E2DD10A90308006AB9C1DC5
:1060300022883C4B9A4205D809A9394800F0D8FD7E
:1060400000280CD00A9B002B26D10324FFF77CFFED
:10605000644220000DB0F0BD5A880199BAE7F423DC
:106060002288FF339A4203D901202388FFF719FEC3
:10607000099E3E4009D10AA92B4800F0B9FD041E33
:10608000E0D00A96FFF754FFE3E706AB9A1DDB88E2
:1060900001339BB21380C9E70A9B08220B936B88DC
:1060A00029009BB26B800B9800F0C8FD041EE9D15B
:1060B0000B9B08330B93049B002B0AD00B98019A7F
:1060C000190000F0BBFD041EDCD10B9B019AD31814
:1060D0000B93029B002B10D00199059B0B9A5B1A26
:1060E0009B180B930B98039A029900F0A7FD041ECE
:1060F000C8D10B9B039AD3180B930A9B0B489B00A8
:1061000009930223099A13430993099900F074FD36
:10611000041EB7D1FFF718FF04009AE78C100000A7
:1061200078100000E7030000000415006C10000068
:10613000F0B5544B87B01B78002B32D0002301936D
:10614000019807B0F0BD63889F4209D06388FF1AA9
:10615000042F05DD0120FFF703FE0626764261E0ED
:106160002378012B60D1EB68002B08D0EB686078B6
:106170006188059A0839C0B2083289B29847414B04
:106180001B78002B06D1AB78002B03D0FFF798FECD
:10619000061E47D13B4B1B78002BD1D1019B002B16
:1061A00007D1394DEB78002BC8D0EB78013BDBB23F
:1061B000EB7003A9354800F01BFD01900028E9D1E0
:1061C0000122039B1342E5D00124FFF7C9FD039B85
:1061D0002E48A3430393039900F00EFD019000287D
:1061E000D8D1AC70039FBF043F0D46D0059005A9E0
:1061F000274800F0FDFC06002000002E10D1059B72
:1062000004AC1800042221006B60AF6000F0F8FCC1
:106210000190638806009BB26380002893D0012020
:10622000FFF79EFD0196B5E72378022B04D12B6979
:10623000002BA4D02B699AE72378042B04D16B6937
:10624000002B9CD06B6992E72378062B04D12B6A34
:10625000002B94D02B6A8AE72378072B04D1AB69F3
:10626000002B8CD0AB6982E72378052B00D074E734
:106270006B6A002B83D06B6A79E702235B42019340
:1062800088E7C046500D0020201E0020701000003E
:1062900084100000F8B51D00002803D0002901D0AB
:1062A000002A04D1002D1BD0FFF70AFE17E00E4C88
:1062B000A3689A4214D86368834211D86368A768B8
:1062C0001618DB199E420BD800F09AFC002806D164
:1062D0006368A2689B189E42E6D0002DE4D1F8BD09
:1062E0000C204042FBE7C046201E0020013800B5CC
:1062F000062815D80C4B09F033FB07040B09110DC8
:106300000F001961002000BDD960FBE75961F9E772
:10631000D961F7E71962F5E79961F3E75962F1E7A7
:106320000C204042EFE7C046201E00207FB500232E
:106330000521059002930193009305AA04330800F8
:10634000FFF72CFE07B000BD70B504009AB0150031
:106350002C2802D10023042203E01B280ED10023A5
:10636000082201A92800FFF795FF002804D1524B0D
:1063700001A91B68002B38D11AB070BD062802D1C4
:1063800001233022EDE70E28F6D0322815D14B4AF2
:106390004B4B11681422994200D8043A002301A9FA
:1063A0002800FFF777FF0028E6D1434B1B68002B3E
:1063B000E2D001A932309847DEE72F2807D16422C6
:1063C000002101A8FFF762FD00236422C9E73428F9
:1063D0000DD101A9002304222800FFF75BFF011E55
:1063E000CAD1354B1B68002BC6D02000E3E711282B
:1063F00014D10023334A01AC137021000422280079
:10640000FFF748FF0028B7D12F4B22781A702A4B8C
:106410001B68002BB0D021001130CCE713280ED11F
:1064200000232C2201A92800FFF734FF0028A3D164
:10643000214B1B68002B9FD001A91330BBE7042818
:1064400010D10023042201A92800FFF723FF002810
:1064500000D091E7184B1B68002B00D18CE701A9F5
:106460000430A8E7652800D174E7092801D1012389
:10647000ABE72A2801D101236DE7202800D07BE774
:1064800001AE0023082231002800FFF703FF002897
:1064900000D071E72800B288083001230199FFF786
:1064A000F9FE002800D067E7034B1B68002B00D1E2
:1064B00062E7310099E7C046540D0020600D0020CE
:1064C0004F130000590D0020580D002010B5041E78
:1064D0003BD0FFF7E3FC002837D02000FFF7DEFCBD
:1064E000202832D8A31CDB7F013B0D2B2DD82300A5
:1064F00041331B78002B09D1230042331B78002B3A
:1065000004D1230043331B78002B1ED023003F33DC
:106510001B78012B01D1002010BD032B18D1E31CE7
:10652000DB7F013B032B10D81022231DDB7F93431D
:106530000A2B0AD124342000FFF7B0FC002804D035
:106540002000FFF7ABFC1A28E5D90C204042E3E716
:10655000022BFAD10434E37F083B382BDBD9F4E774
:1065600070B58CB06B46012607331E70002826D00C
:1065700000250168134A18001160134A157000F0D5
:1065800033FC0400A84213D1FFF7F4FC0400A84236
:1065900011D10E493000FFF7A9FE02A800F0C4FB9C
:1065A000030004000C3303D102A800F065FB0400D3
:1065B00020000CB070BD280000F04FFCF8E70C2460
:1065C0006442F5E7540D0020590D00204963000096
:1065D00010B5FFF7ADFD10BD1FB5002229210292B5
:1065E0000192009213000120FFF7D8FC05B000BD16
:1065F000F0B5A5B01C002AAB1B88069005932BAB09
:106600001B780F0016000793012A1DD0002C03D120
:106610000C20404225B0F0BD022A15D12000FFF722
:106620003DFC402810D12100220040311378180091
:1066300030383628ECD80A380628E9D9473B192BD8
:10664000E6D901328A42F1D17B1E1F2BE0D8059B8F
:10665000013B0D2B02D9059BFF2BD9D15A2004AB4E
:1066600009AD3A000699C018EF19FFF705FC3B0089
:10667000002746331F701A2304AA9B186A46928A81
:1066800004A9DA87079B5A1E93417B225218137084
:1066900055235B181E70032E1ED123782B70032BFD
:1066A000B6D86278102311006A7099430A29AFD1D5
:1066B000162004ABC018A11CFFF7DEFB6378EB18B3
:1066C0009F7000232A0002930193009328216C33CA
:1066D0000120FFF763FC9DE7022E0DD12000FFF79C
:1066E000DDFB431E9BB2421C3F2B00D990E72100EB
:1066F0002800FFF7C1FBE4E7042E01D13E22F6E7B4
:10670000012EDED084E737B5002506AC248801953C
:106710000094FFF76DFF3EBD1FB5002203210292DA
:106720000192009213000120FFF738FC05B000BD74
:1067300010B50400FFF7E2FB002806D1200000F0AE
:106740000DFA002801D1FFF7FFFB10BDF0B50500E1
:10675000B9B00C001600002836D0FFF7B7FE071EB0
:1067600032D105A888222900FFF786FB2000FFF719
:1067700095FB002828D0002C26D027AD40222100F0
:106780002800FFF779FB37AB1E70114B114A1F70C1
:10679000114B1968CC2391420BD816226A44D37F3F
:1067A0002100013BD37717A84022FFF765FB8A231E
:1067B0002E7000228821029201920092012005AAE7
:1067C000FFF7ECFB39B0F0BD0C204042FAE7C046C1
:1067D000590D00204F130000600D00201FB500224E
:1067E000052102920192009213000120FFF7D6FBCF
:1067F00005B000BD1FB500221A210292019200923D
:1068000013000120FFF7CAFB05B000BD37B5802497
:10681000A525640004436D012100280000F0ECF977
:10682000002301A92800019300F0E2F90028F3D128
:10683000019BA342F0D13EBD002307B5104801A93A
:10684000019300F0D5F9002819D18021019B49005E
:1068500019430B48019100F0CFF900280FD1D02047
:1068600001A9400100F0C4F9002808D18021D020FE
:10687000019B490219434001019100F0BDF90EBD91
:106880000814000037B51F4C2568002D20D180204A
:106890002100400100F0ACF9002803D00023236060
:1068A00028003EBD01A9184800F0A2F90028F5D142
:1068B0002368164A93420DD1019B012B01D0144B42
:1068C00023602368134A1A40A023DB02134323608A
:1068D0002568E5E7104A934208D1019B032BF0D0CD
:1068E000042B01D10D4BEBE70D4BE9E70D4A934229
:1068F000E7D1EC202100800300F07AF90028CDD107
:10690000DFE7C0465C0D0020F4130000A002100079
:10691000A1021000FFFFF0FFB0021000B102100052
:10692000B2021000F000100013B5012401A91020DC
:1069300000F05EF9002812D1019B2342F6D101A993
:10694000013000F055F9002809D1022301991942BC
:1069500006D101A90B2000F04BF9002808D016BD84
:1069600099430120019100F047F90028F1D0F6E7A2
:10697000012301991942F2D099430B20019100F0B3
:106980003BF9ECE7002373B50B20694600930193B4
:1069900000F02EF9041E09D10121009B0B4207D003
:1069A0006946012000F024F9041E08D0200076BDBD
:1069B00019430B2000F020F9041EF1D0F6E7022164
:1069C000009B0B4213D00525042601A90F2000F0DF
:1069D0000FF9041EEAD1019B33420FD10220013D81
:1069E000FFF75FF9002DF0D104246442DEE719437C
:1069F000012000F001F9041EE5D0D7E700F0F0F81F
:106A0000D4E7000070B50400264800F0EDF8002837
:106A100003DB0120FFF745F9F6E7234800F0E4F82F
:106A2000C3070CD4214D0120FFF73BF9013D20485D
:106A300000F0DAF8002D31D01E4B9842F3D1022C31
:106A40000AD11D491D4800F0D7F8802149031C4890
:106A500000F0D2F800240EE0032C05D116491748A7
:106A600000F0CAF80021F2E716491548042CEFD1CE
:106A700000F0C2F87C34FFF705FF134B0005000D52
:106A8000984209D902202043FFF7C0FE0F49084869
:106A900000F0B2F8002070BD2000F5E7052040426C
:106AA000F9E7C04614100000BC070200D10700003F
:106AB0000C000C009ED0AD107DD51C3CAC07020034
:106AC0008C100000521352139F030000612F52EFED
:106AD00037B5134B134C023800930194012803D8A7
:106AE000114B0093114B0193FA250020ED00019BFF
:106AF000834209D1019B0025A34203D12900084804
:106B000000F07AF828003EBD0220FFF7CAF8013DE8
:106B1000009800F069F8002DE9D105256D42F1E7F4
:106B20008C10000036265302AC070200C3C15DD7AB
:106B300007B5A020002301A94001019300F058F8F7
:106B4000002807D1A020019B034940011940019171
:106B500000F052F80EBDC046FFFBFFFF30B587B016
:106B600008220021050004A80BF067FF01A91648C0
:106B700000F03EF8041E24D1019B002B1BD0C02046
:106B800080021843082204A900F03AF8041E18D124
:106B9000049B0193019B02A998B2C0239B02019020
:106BA0000622184300F02CF80622040002A928004F
:106BB000FFF762F905E001A9044800F019F8041E86
:106BC000E8D0200007B030BD08000C009C14000085
:106BD00010B5FFF7E5F810BD10B5FFF745F910BD8A
:106BE00010B500F0DFFA10BD10B500F0EFFA10BDDF
:106BF00010B500F0F1FA10BD10B500F0F6FA10BDB6
:106C0000F7B50700150006000B4B01911C88083CE6
:106C1000A4B2019BD91B8919AC4204D3AAB230009B
:106C200000F02CFBFEBD2200300000F027FB002806
:106C3000F8D12D1B3619ECE736000020F7B5070018
:106C4000150006000B4B01911C88083CA4B2019B67
:106C5000D91B8919AC4204D3AAB2300000F056FB0C
:106C6000FEBD2200300000F051FB0028F8D12D1BA2
:106C70003619ECE736000020002373B5040001A9A3
:106C800023480193FFF7B4FF224B019A05009A4273
:106C900004D101A92048FFF7ABFF05000F26019A98
:106CA000110C8BB2180A1B0933402372314093B286
:106CB0006172190A1B093340324021716371A2715C
:106CC000E071FFF7DFFD00232060FF20227923849D
:106CD000A379120233401343627912010240134335
:106CE0000E4A1360E179627A090232400A43217A3E
:106CF000090101400A480A43824201D90D256D422B
:106D0000084A934201D80D256D42280076BDC04641
:106D1000AC070200C3C15DD748100000600D002021
:106D2000521300005113000030B5002585B0040057
:106D30000822290002A801950BF07FFEAC4202D187
:106D4000002005B030BD290020002822FFF79EF862
:106D500001A92148FFF74CFF0028F2D10198002833
:106D600002D10C204042ECE7C025AD0228430822A6
:106D700002A9FFF745FF0028E3D1039880B20190F4
:106D80000028EED0284328222100FFF739FF0028F1
:106D9000D7D10F21FF252279A379607912020B4008
:106DA0000001134328400D4A03431360627AE079DF
:106DB0000A40217A00020901024329400A43002BBC
:106DC000CFD0002ACDD006498A4202D8054A934244
:106DD000B6D80D20C6E7C04608000C00600D0020A4
:106DE000521300005113000070B50125002804D093
:106DF00005786B1E032B00D901250020FFF7E8FE64
:106E0000041E1ED1FF24FFF73DFDE823240120408E
:106E10009B00984217D100F0F1F92800FFF7F2FD2E
:106E2000041E0CD12800FFF753FE041E07D1023DBB
:106E3000012D06D9FFF700FD002802D00400FFF75E
:106E4000CBFE200070BDFFF71DFDAC2320409B0052
:106E50009842E0D010246442F1E710B5FFF768FED5
:106E6000041E09D100F074FE041E05D1FFF7B4FE24
:106E7000041E01D100F0A4F9200010BD1FB50022AE
:106E800001AB01901981032019000292FEF7A0FFC7
:106E900005B000BD1FB5002201AB0290198103208F
:106EA00019000192FEF794FF05B000BD73B56B4663
:106EB0000600DD1DCF2822D003003B33DBB2012BBF
:106EC0001DD90B2401212800FFF7E4FF00281CD165
:106ED0002B78B34203D0013CE4B2002CF2D10B2456
:106EE00001212800FFF7D6FF00280ED12B78002BB8
:106EF00003D0013CE4B2002CF2D1012006E00121D4
:106F00002800FFF7C7FF0028DBD0002076BD000077
:106F1000F0B50C00002785B0009001928023261C5C
:106F20009B019C4201D91B4B1E880A25B6B202ABBD
:106F30000121D81CFFF7AEFF002808D102ABDB7897
:106F40001B090F2B10D0013D2DB26B1CEFD100207F
:106F50001DE0114B1B78002B12D1022103A8FFF773
:106F600099FF00280CD0F2E7002DF0D0009B3100F3
:106F7000D819FFF78FFF0028E9D1019B002BE8D03B
:106F8000A41BF719A4B23FB2002CC7D1012005B051
:106F9000F0BDC046CC7C0100640D0020F0B585B08A
:106FA0000AAC257801AC2070C3380C2800D96BE0FE
:106FB00008F0D6FC482936363C3C5A076A6A6A6AA9
:106FC0003A000B0C63700B0AA370E17005212F4B84
:106FD000481E1B78002B55D10A002D4D7F336618B3
:106FE0005742F75D5B007B40013AEB5C012AF7D129
:106FF0005B00235489B22000FFF740FF4342584111
:1070000040B205B0F0BD0B0ADBB2002D04D16370B5
:107010000023A170E370D9E7802252421343F6E7C0
:1070200000236370A370F5E7FF23FAE70A0C627090
:107030000A0AA270002222711A0AE1706271A37119
:107040000821C4E70B0ADBB2002D09D16370130ECF
:10705000E370130C2371130AA1706371A271EFE73F
:10706000802040420343F1E70B0C63700B0AA370CE
:10707000130E2371130C6371130AE170A371E27193
:107080000921A4E7C1B2B5E70020BAE7640D0020EA
:10709000D27C0100F0B585B006000391302830D8CD
:1070A000194B1F7830220023B2425B410A24FFB201
:1070B0000293029B039A0093310004233800FFF7E8
:1070C0006DFF0500012805D13800FFF7EFFE050030
:1070D000012813D00120FEF7E4FD0021CF2000910C
:1070E0000B000A00FFF75AFF013CCF20FFF7DEFE3E
:1070F000E4B20120FEF7D5FD002CDAD1280005B05E
:10710000F0BD024BCDE7C046CE7C0100CF7C010034
:10711000F0B5060087B00F00FF2827D81F4B1B785B
:10712000FF22DBB202930023B2425B410A250393A4
:10713000039B00220093310004230298FFF72EFFE7
:107140000400012814D10298FFF7B0FE04000128C2
:107150000ED1039A042105A8FFF7DAFE04000128E6
:1071600006D1059B3B60200007B0F0BD0C4BD6E775
:107170000120FEF796FD0021CF2000910B000A00B0
:10718000FFF70CFF013DCF20FFF790FEEDB201208D
:10719000FEF787FD002DCBD1E5E7C046D07C01008E
:1071A000D17C010013B50024CF2023002200210050
:1071B0000094FFF7F3FECF20FFF778FE200016BD06
:1071C0000020014B18707047640D002007B501A91D
:1071D000FFF79EFF01980EBD10B5FFF799FF002342
:1071E000012800D0063B180010BD10B5FFF752FF74
:1071F0000023012800D0063B180010BD002313B562
:107200001C4C01A91C4801932370FFF781FF002843
:1072100014D02378002B1BD0802069464001FFF753
:1072200077FF002822D01448FFF7D0FF70235021A9
:10723000984301431048FFF7D8FF07E0012301A955
:107240000D482370FFF764FF0028E2D1002016BD2F
:107250007C235021019A08489A4311430191FFF77A
:1072600019FF0028F2D001232370D5E70620404201
:10727000EDE7C046640D002024E80000F0B51400DE
:107280000A27002687B003900291012C01D1260025
:1072900001340025230000952A000399C820FFF738
:1072A0007DFE012816D00120FEF7FBFC0021CF2037
:1072B00000910B000A00FFF771FE013FCF20FFF79E
:1072C000F5FDFFB20120FEF7ECFC002FDDD106201A
:1072D000404212E0C820FFF7E9FD0128E3D1002E6B
:1072E0000DD02A00210005A8FFF712FE02AB1B7B80
:1072F000029A13700128D6D1002007B0F0BD3200E9
:1073000021000298FFF704FEF4E700000A23F0B51D
:10731000160089B0049005910293012E00D1013628
:107320000027330000973A000499C720FFF736FE84
:10733000012849D1C630FFF7B9FD012844D13400F6
:1073400007AB1F80039080239B019C4256D82500E9
:1073500003230B2004AA80181022524213430399DE
:107360000370FFF78BFD00282ED1059B2900D8194B
:10737000FFF784FD002827D1244B1B78002B1DD05C
:10738000641BEF19A4B23FB2002CDCD11F4B07A83D
:107390001D786B1E9D410235A9B2FFF77BFD0028C9
:1073A00012D107AB5D196B1E1B78002B0CD1023D6F
:1073B0002B78C32B08D1200009B0F0BD022107A80B
:1073C000FFF75CFD0028DBD00120FEF76AFC0021FE
:1073D000CF200B0000910A00FFF7E0FDCF20FFF760
:1073E00065FD0120FEF75DFC029B013BDBB20293D1
:1073F000002B00D091E706204042DDE78025039B6B
:10740000AD01002FA5D00223A3E7C046640D0020E4
:10741000F0B59BB000911400412801D0542816D13A
:1074200009AD0023042229002000FEF733FF0028C5
:107430000BD16B7805AA1370964B1968002904D0FC
:10744000002001211B68285698471BB0F0BD422838
:1074500014D109AD0023042229002000FEF71AFFF1
:107460000028F2D16B7805AA13708A4B196800299D
:10747000EBD000201B6828560221E5E743283DD1C8
:1074800005AD00230C2229002000FEF703FF002891
:10749000DBD10920285600281FDB0823EB567E4A43
:1074A0001B01D318DB7A04011119DBB2CB72012363
:1074B0008B726B89083B9BB20B81784B1988013129
:1074C00089B219801988002903D11988013189B23C
:1074D00019801B8812199BB2D380022309AA10704D
:1074E00093806B88D3806B6893606A4B196800291E
:1074F000ABD008201B6828560421A5E7442801D0FA
:107500004B2821D109AD0023042229002000FEF7D9
:10751000C1FE002800D098E700200123285605AAC4
:107520001070EB565370002B06D16B885A49083BFC
:1075300004019BB209190B81564B1968002900D12F
:1075400083E71B6805217FE74A2812D100234422E4
:1075500009A92000FEF79EFE002800D075E7504BD9
:107560001A68002A00D170E71B68199909A8984782
:107570006BE7462803D0482839D04D2847D1062646
:1075800005AD0023102229002000FEF783FE00280D
:1075900000D05AE70C27EB89EF573F4902933B0194
:1075A000CB18019318730822AB5E6A89039269882D
:1075B00009AA51816968029DD1600199C9888D42EB
:1075C0001BD1002B15DD00998B4212DA0125938027
:1075D000039B34491C190D701460D0802D4B196821
:1075E000002900D131E71B68310038002CE709265B
:1075F000C6E7938000230993F0E7009B102B00D887
:1076000023E7012302000100FEF744FE1DE74528A1
:1076100003D0472821D04C2821D1072609AD0023CB
:10762000082229002000FEF735FE002800D00CE7D4
:1076300000206B88285605AAA9881380164B0401E0
:107640001B19DB88994200D0FFE6124B196800290C
:1076500000D1FAE61B683100F6E60826DEE752287C
:1076600000D0F2E609AD0123142229002000FEF724
:1076700011FE002800D0E8E60B4B6A681A601A6811
:10768000002A00D1E1E61B682A7CA968286898478F
:10769000DBE6C046FC1E00204C1E0020660D0020CC
:1076A000041F0020500D0020001F002070B5094D60
:1076B0002C78E4B2002C0CD1B02221000648FEF751
:1076C000E5FB06490220FEF711FE01232B70044B57
:1076D0001C8070BD650D00204C1E00201174000040
:1076E000660D0020024B1860024B19607047C046BF
:1076F000FC1E0020041F0020F0B5170089B00228EE
:1077000004D001256D42280009B0F0BD012943D104
:1077100007252E4E337834783078DBB201300721DC
:10772000059308F0A1FAE4B2294BC9B224013170E3
:107730001C19A37A002B2AD16B4614255D57002D06
:10774000E1DB102200212000FEF7A0FB0123A37241
:10775000204B1A88013292B21A801A88002A03D16B
:107760001A88013292B21A801B889BB2E380FB0711
:10777000C9D52123E372002307AA15705021029373
:107780000193009302200433FEF708FCBBE7013DA0
:10779000EDB2002DBED1B4E70229B2D104230326F5
:1077A0000D490E480D780C780A78240101323240D8
:1077B00024180A70A27AEDB2002A02D107356DB200
:1077C000BDE7013BDBB2002BECD19AE7680D00204E
:1077D0004C1E0020660D0020690D0020BC1E0020FC
:1077E000F0B5140089B000282DDB00292BD0174BF1
:1077F0000701DA19937ADBB2012B24D1002C22D0B5
:10780000D47A4426A446654605AC1D4202D0D37AFC
:1078100007366372207208222000FEF72DFB0B4B07
:107820002200DD19EB8831006381002302200293DE
:10783000019300930C33FEF7B1FB002801D009201F
:10784000404209B0F0BD0620FAE7C0464C1E0020B9
:1078500070B588B0002833DB002931D0AF23DB00BE
:107860009A422DD8174C0601A3199D7A012D27D1D4
:10787000DB8804ADAB8128706A805023062800DDC8
:107880000C3BA019C67A4524F60708D50E4C03898F
:1078900026680E489BB24C24864200D8552380208F
:1078A000044302930192009110232A0021007E38A4
:1078B000FEF774FB002801D00E20404208B070BDD6
:1078C0000620FAE74C1E0020600D00203F13000048
:1078D000F0B5070087B010001A00002F29DB164C06
:1078E0003B01E618B57AEDB2012D22D11951B080D5
:1078F0000020317B81421AD13573F07A462128422B
:1079000000D00731002A00D1013AE418E38804923C
:1079100004AAD380002317710220029301930093DD
:107920000833FEF73BFB002801D00E20404207B091
:10793000F0BD0620FAE7C0464C1E002070B586B0A8
:10794000002825DB144C050161198E7AF6B2012E50
:107950001ED1CB8805AA538000238B72CB80107078
:10796000C87A4921304200D0053102930193009337
:1079700002200423FEF712FB061E01D009267642E0
:10798000601910220021FEF781FA300006B070BDA8
:1079900006267642F9E7C0464C1E0020F0B589B0B5
:1079A000059200282BDB174C0701E519AE7AF6B2D9
:1079B000012E24D1AA7A002A02D1002009B0F0BDFC
:1079C0006A46928A3951AA802A7B002AF5D12E7301
:1079D000002B00D1013BE4190693E38806AAD3806B
:1079E0000023107148210293019300930220083371
:1079F000FEF7D4FA0028E1D00E204042DEE7062050
:107A0000FBE7C0464C1E00201FB50400FEF746FAF7
:107A1000C3B2402B0BD80022013302920192009294
:107A20004A2122000220FEF7B9FA04B010BD062058
:107A30004042FAE7F0B599B01EAC24880591A446FF
:107A4000002800DA7FE0002B00D17CE03F4E0501EA
:107A50007419A77AF9B2012900D074E0059F022FAA
:107A60005BD1062800DD6EE0E77A0F4200D16AE0C4
:107A7000012A0DD11868E37A002804D0059919432A
:107A8000E172002002E0059A9343E37219B0F0BD61
:107A9000032A0AD11868E27A1023002802D013437F
:107AA000E372EEE79A43E272F0E7042A0CD11B6816
:107AB0007519002B04D04023EA7A1343EB72E0E7F8
:107AC0004022EB7A9343F9E7022A3CD162463F2AEF
:107AD00039D87519EA8806AC62806246002602250C
