:020000040000FA
:10000000FC7F00200D060000FD0500000106000039
:1000100000000000000000000000000000000000E0
:1000200000000000000000000000000005060000C5
:100030000000000000000000090600004D0700005D
:1000400010B5064C2378002B07D1054B002B02D0AE
:10005000044800E000BF0123237010BD5C000020B5
:1000600000000000A818000008B5084B002B03D0C2
:100070000748084900E000BF07480368002B03D089
:10008000064B002B00D0984708BDC046000000007A
:10009000A8180000600000205800002000000000A8
:1000A000154A164B1178002909D115491878097895
:1000B0004118C9B21970802012494003C8611178F3
:1000C0000131C9B211701978F02902D819780929BB
:1000D00009D80B4908784042C0B2087018780978EE
:1000E0004118C9B2197012781B789A4203D1802244
:1000F000044B5203DA6170477800002001000020B1
:10010000000000200044004110B5C3699C07FCD4E6
:1001100003680224A3430360C46901231C42FBD18A
:100120000468234303600368DC07FCD4C46901232B
:100130001C42FBD1C469DC401C42F7D1084B1A4376
:100140000260C3695A07FCD4C0239B0243608181CB
:10015000C3699C07FCD4036802221343036010BDEB
:1001600004000040037EDA07FCD5018570470000DB
:10017000027E01235107FBD5428B1A4207D1428BE5
:10018000DA401A4203D1428B92081A4202D0034B42
:1001900001221A70008DC0B27047C046790000205D
:1001A00070B50368041C988B1A1C0821FF320842A2
:1001B00026D0802099839872112353704021144BCC
:1001C000917150715E68134DC0202E40800506432A
:1001D0005E605E693540284358610F4818600F48DB
:1001E00018615D680E4828408025AD02284358609C
:1001F0005868800B8003586000235171237105E01B
:10020000137ADA0602D5201C00F0DAFA207970BDE4
:1002100098010020FFFFFF8F9800002018010020A8
:10022000FF3F00F0002303714371044B01608360C2
:100230000B78022213430B707047C046A1010000E7
:1002400038B5364B2021DA6901200A43DA61344B94
:1002500006241A7802431A70324B0F221978914300
:1002600019701978214319702F490C7820430870B0
:1002700019780A401A701A7860210A431A702B4BB9
:100280002B4A5A805A7852B2002AFBDB294B0121B3
:100290001A780A431A709A78D107FCD42648026863
:1002A000510B1F221140914200D1052111408C01B8
:1002B0001D8D22492940214319850468A10C0A405B
:1002C0001F2A00D11D221C8D1F210A408C4322436E
:1002D0001A8502680721D20D0A408A4200D1032202
:1002E0000A40188D1103164A02400A431A851978EC
:1002F0007F220A401A701A78042112480A431A70A1
:1003000058621A890C218A431A811A8901218A4369
:100310001A810021802201F046F938BD0004004016
:10032000584400413C44004159440041000C004005
:100330000640000000500041246080003FF8FFFFAD
:10034000FF8FFFFF98010020F7B5141C1F4A5F01C3
:1003500001971D1CD319061C5869271C4000400F2B
:1003600003301033C74006D00F1C80225968120694
:100370000A435A6009E02F1C7B1E9F41144BBF01AA
:10038000FF18381C221C01F005F901990F480835A7
:1003900042181761131C5269A104920B890C920335
:1003A0000A435A6159690B4A0A405A616B01F318B2
:1003B0000222DA715979802252420A435A716B0142
:1003C000F318DB799A07FAD5201CFEBD98010020AE
:1003D00018010020FF3F00F0F8B51A4E051C3378D5
:1003E000141C002B12D1184B184A1A645A6C920B29
:1003F00092035A64586C164A02405A64A2235B0066
:10040000EA5C40200243EA54012333704827FF3757
:10041000EA5D0123134012D00B4B5A6C9204920CEC
:10042000A24202D25C6CA404A40C081C221C074942
:1004300001F0B0F80123EB550023337000E01C1CE1
:10044000201CF8BD7A00002098010020D800002070
:10045000FF3F00F0FF3083792022002900D11022D5
:100460001343837170470000084BFF305A69920BA9
:1004700092035A6102230372827980235B42134301
:100480008371037A9A07FCD57047C0469801002013
:1004900080235B421943C9B28172704770B5A023B3
:1004A00003225B00C254134B134A5C6CC0211440FE
:1004B00089050C4346255C64FF35402444550F4DA7
:1004C00030261D6490256D0046555D6B154029430F
:1004D000922559636D0080214155094D1D63B0255A
:1004E0006D0044555C6F22405A67B2235B00C154D3
:1004F00070BDC04698010020FFFFFF8FD80000208C
:1005000058010020024B5B785BB2002BFADB70478E
:10051000000C0040024BDB68DA06FBD57047C04692
:1005200000080040F8B52A4B1E2259689143022268
:1005300011435960274B28491E1C9982998A0A4306
:100540009A82F3680227234C3B42FAD0234D0123C1
:10055000AB60FFF7D7FF224B6B60FFF7D3FF82231F
:10056000DB016B80FFF7CEFFA38C80229343A38433
:10057000FFF7D0FF1B4BE362FFF7CCFFA38C1A4AB7
:100580001343A384FFF7C6FFA38C1F43A784F3681C
:100590001A06FCD50F4BDB685A06F8D50024FFF786
:1005A000B9FFAC60FFF7AEFF104B6B60FFF7AAFF1F
:1005B0000F4B104AC0215A600F4A0906106A000208
:1005C000000A0143116207229C601A60F8BDC04610
:1005D00000400041000800400C060000000C0040F4
:1005E00001050100B805FF7D040A000000070300B3
:1005F00010E000E0E703000000ED00E00EBEFEE7C3
:100600000DBEFEE705BEFEE702BEFEE70E4A0F483E
:1006100038B5824204D10E4A0E4B93420ED10AE005
:100620000D4C9442F7D00023D1188842F3D9E558F5
:1006300004330D60F8E700F011F804E09342FAD2B9
:10064000002102C3FAE7FEE7000000205C00002062
:10065000A80300205C000020AC18000038B5304B27
:100660001A681C1C013221D02E4A191D1160D9B202
:1006700000291BD12C4A1078012210402B4A0AD1A4
:1006800015682B498D4201D110600FE01160294996
:1006900001390029FCD11160226882F30888FF2209
:1006A0009343254A93601E4B5B681847FFF73AFF58
:1006B00062B600F09DFD00F04FF8204B80225203FF
:1006C0009A601F4B1F4A041C5A601B4AC021106AC3
:1006D00009060002000A0143116200229A60072203
:1006E0001A60A368201C9847174B002801D00122EC
:1006F0001A701A78002A05D0002000F08BFA00F05A
:1007000003FBFCE71B78002BEBD100F0E5FD002894
:10071000E7D0012000F07EFA00F0F6FAFCE7C046D0
:10072000002000001802002038040040FC7F002058
:100730003581730748E8010000ED00E00044004106
:1007400010E000E0E70300007B00002008B5FFF7A1
:10075000A7FC00F0C3FA08BD10B5054B054C23609B
:10076000FFF76EFD201C2168FFF75CFD201C10BD0B
:10077000005000411C02002070B5051CC0B0081CD0
:10078000161C0C1C00F017FF40006A4603230230C1
:100790005370107076080123E218013A11785A005C
:1007A000002906D1281C69460023FFF7CDFD40B083
:1007B00070BDB342F6DA684681520133ECE70000BF
:1007C000F7B5BA4A04681378B949271CFF37051CE6
:1007D000102038720B705378B648B74E0370937878
:1007E0003380D178338809020B4333801179B34BBE
:1007F0001980517918880902084318809079B04906
:100800000880D2790888120202430A8040227A7155
:10081000A84F3A78A64F120238780F1C0243A94815
:100820008446181C624500D1C2E020DC80214900CA
:100830008A4200D16EE109DC812A00D192E0822A4D
:1008400000D195E0802A00D064E18BE081235B0039
:100850009A4200D1CFE000DA58E1C0239B009A42CF
:1008600000D157E1984B9A4200D14FE152E19023D9
:100870001B019A4269D015DCD023DB009A4222D0BA
:1008800088231B019A4269D0A023DB009A4200D042
:1008900040E1201CFFF7E8FD3188286889B2FFF7A6
:1008A000F7FD3BE1894B9A4200D12FE100DC31E1B9
:1008B000874B9A4200D11DE1864B9A4200D029E134
:1008C00033886B7122E133881B0A012B08D10B8816
:1008D00012222868934201D80A8892B27E4911E117
:1008E00033881B0A022B08D10B88432228689342C5
:1008F00001D80A8892B2794904E133881B0A032B94
:1009000000D007E13388DBB2012B17D0002B07D0D2
:10091000022B00D0FEE00A882868D2B2704911E0AC
:10092000042201A86F4900F035FE3B8804222868A4
:10093000934201D83A8892B201A9E3E00A88286874
:100940006949D2B2FFF718FFE8E03388201C2B7109
:10095000FFF78AFD201CFFF7A1FDDFE0291C01C97C
:100960000122CFE0614900230B8028680222CAE0FF
:100970005E4900220A801888502210405C4A10709C
:100980001E880F20304018801888032800D9C1E045
:1009900012781B8808335B01E418A379002A01D080
:1009A0009B0600E0DB06DB0F0B8028680222A9E033
:1009B00019887F2291434E4AC9B2117018880F21BD
:1009C000014019803188002900D0A3E0198800294E
:1009D00000D19FE01988032900D99BE012781B8879
:1009E00008335B01E318002A02D020225A718DE0FF
:1009F000102159718AE002887F239A433C4BD2B27E
:100A00001A7001880F220A4002803288002A00D022
:100A100080E00288002A00D17CE00288032A00D905
:100A200078E01B78002B1FD0038808335B01E318A4
:100A30009B799A066AD50388202208335B01E31864
:100A40001A71038808335B01E318DB795F065DD513
:100A50000388402208335B01E318DA71038802221D
:100A600008335B01E3181EE0038808335B01E318D9
:100A70009B79D9064AD50388102208335B01E31815
:100A80001A71038808335B01E318DB799A063DD5B8
:100A90000388202208335B01E318DA7103880122FE
:100AA00008335B01E3181A7130E0C046980000205B
:100AB0007D000020820000208400002086000020AD
:100AC000800000200203000001030000212000003C
:100AD000A121000021220000FC15000004000020DC
:100AE000EC150000DC150000E01500007E00002081
:100AF0007C0000200B8808222868934201D80A88CD
:100B000092B207490023FFF71FFC07E0201CFFF704
:100B1000ABFC03E0201C0121FFF79CFCF7BDC046A5
:100B20004800002007B5054B0122019001A9186873
:100B3000131CFFF709FC01200EBDC0461C0200205B
:100B400013B5054B6C4607341868211C0122FFF7CA
:100B500043FC207816BDC0461C02002010B5074C8F
:100B6000201CFFF71DFB031C0020834205D02268D8
:100B70004823FF33D05C0123184010BD1C02002025
:100B800010B5054A0C1C031C191C10680123221CFB
:100B9000FFF7DAFB201C10BD1C02002070B5084CCA
:100BA000061C201C0D1CFFF7FBFA0023984205D001
:100BB0002068311C2A1CFFF70FFC031C181C70BD99
:100BC0001C020020F8B50C4C051C201C0E1CFFF765
:100BD000E7FA0023271C341C98420AD0002C07D0C7
:100BE000291C221C3868FFF7F7FB241A2D18F5E79B
:100BF000331C181CF8BDC0461C02002008B5031C9D
:100C0000081C111C9847024B64221A8008BDC0467C
:100C10008C000020012805D1054B064A1A60064BBE
:100C2000187004E0002802D1044A014B1A60704792
:100C30008C02002030160000940000207C1600007A
:100C400030B50A1C1C4985B00978031C00292AD03C
:100C5000042A01D1006804E0022A01D1008800E0E2
:100C60000078520004A98B180B3B9C1AA3420BD0AE
:100C70000F210140092902D83025294300E03731EE
:100C800019700009013BF1E701A930230B707823AB
:100C90004B700A208B1898700D20D870074B0432C7
:100CA0001B68D86803E005490968C868191CFFF784
:100CB000A5FF05B030BDC046880000208C02002092
:100CC00072B6EFF30883044A1360036883F308885D
:100CD000436818477047C04690020020084B1A88A6
:100CE000002A03D01A88013A92B21A80054B1A885A
:100CF000002A03D01A88013A92B21A807047C0467F
:100D00008C0000208A000020F0B591B008A9CC4AE0
:100D10000B1C31CA31C351CA51C360CA60C3C94B2D
:100D2000C9489A687A255203520F92005258C7490F
:100D300002609C68A4B262430C60C54900240A604A
:100D4000C44A1460C44C2570C44CC54D2368281C8B
:100D50001B6940219847002802D0C24B64221A80A8
:100D6000C14B00221860C14B1D60C14BC04DBE4F2E
:100D70001A602A683B689A42E6D2BC4B1B681A7814
:100D8000FF2A00D114E2232A00D0EBE1B94E3378D8
:100D9000002B06D0B14BB8491B680222D868FFF778
:100DA0002DFFAD4B1B78532B3CD13B682A689342F7
:100DB0001ED9AE4801322A609A1AB04B01681B68EE
:100DC00001310160AE4E9A4201D2326000E03360E0
:100DD000A04832680068049000F0DCFB33682968A2
:100DE0005A182A60A14A1668F1181160A54A1370B2
:100DF0002B68013B2B609D4B1A68013A1A60A14B8E
:100E00009E4A1B7811688B420AD222689148C91AFF
:100E1000006892699047002802D0924B64221A80A1
:100E2000C0468DE1522B0AD18A48944A2368006853
:100E300011685B69039098476422934B0DE04F2B38
:100E400005D1844B8D4A1B6812681A7078E1482BD3
:100E500005D1804B894A1B6812681A8070E1572BB4
:100E600005D17C4B854A1B6812681A6068E16F2BBC
:100E700003D1784B0121186807E0682B08D1754B26
:100E80007E481B6802211B880360FFF7D9FE57E1EB
:100E9000772B06D16F4B79481B6804211B680360D0
:100EA000F3E7472B13D1754B1868FFF709FF774B12
:100EB0001B6883F3088862B6754B1B78002B00D142
:100EC0003EE1664B06201B681B68984738E1542BAF
:100ED00004D101233370614B1B6864E04E2B0CD1AD
:100EE0003378002B06D15D4B63491B680222D8681A
:100EF000FFF784FE0023337022E1562B57D123687D
:100F00006449D8680122FFF779FE23686249D868EE
:100F10000322FFF773FE614D2368291CD868012264
:100F2000FFF76CFE23685E49D8680D22FFF766FE66
:100F30002368291CD8680122FFF760FE4B4F4C4DF7
:100F40005849002339602B603A1C281C13685E1C2A
:100F500016601B780593002B03D0036801330360F0
:100F6000F4E73E4E2A683368D868FFF747FE3368D7
:100F70004A49D8680122FFF741FE059929604A498C
:100F800039603A4A1368581C10601B78002B04D053
:100F9000374B1A6801321A60F3E733682A68D86859
:100FA000FFF72CFE3368D86833490222C6E0334A83
:100FB000582B17D1244E264D366813682A68B10085
:100FC00093420AD21F4D5808E861384828801D4DC9
:100FD000287DC607FBD55B18F2E7204B34491B6818
:100FE000D868AAE0592B79D112681A4B3149002AE6
:100FF00002D11B680B606CE0124D086819686B68C1
:10100000104E8025AB4392087360002A61D02A4BB2
:101010000C4D2B800B4E337DDD07FBD500230A4D95
:101020002D680195AD08AB4203D3244D054E3580A4
:1010300046E09342F9D09D00465901334E51EEE708
:101040001016000000400041440200203C02002035
:101050003802002088020020340200208C02002088
:10106000480200208A0000202C02002030020020CC
:10107000400200208800002070160000940200202A
:1010800098020020280200208C00002090020020FE
:10109000940000204C160000751600004E1600004B
:1010A00098160000501600005C16000002A5FFFF15
:1010B000651600009000002044A5FFFF04A5FFFF77
:1010C0003F4E357DEE07FBD59D0049194019D21AD8
:1010D0009BE73C4B3C491B68D8682EE05A2B2FD12C
:1010E0003A4B17681D680026EF19BD4206D02878D4
:1010F000311C00F013F90135061CF6E7314B344979
:101100001B680122D868FFF779FD07230F223240C0
:10111000111C36093031092A00DD07311820C018AA
:101120006A468154013BF1D2236806A9D868082297
:10113000FFF764FD23682749D8680322FFF75EFDA7
:10114000254B7A221A70254B00221A60244B1B78FB
:1011500093422DD01B4B23491B680122D868FFF70F
:101160004DFD25E0111C3039C8B21C4B092804D8AC
:101170001D682A01114319601AE0111C4139052923
:1011800003D81E68373A310106E0111C6139052980
:1011900004D81868573A01010A4308E02C2A03D101
:1011A0000A4A1968116001E00B490A7000221A60AE
:1011B0000D4B1A6801321A600C4B1A680132D5E5E2
:1011C000004000418C0200206916000088020020C7
:1011D0006D1600006F1600003402002094020020FB
:1011E000880000207316000040020020300200201A
:1011F00010B51C4B01201A78022402431A701A4BB6
:101200000F221978914319701978214319701749E1
:101210000C782043087019780A401A701A78202137
:101220000A431A70124B04211A6A0A431A62114BBC
:10123000114A5A805A7852B2002AFBDBC4220F4866
:101240000F499203FEF760FF0E4A002313700E4A07
:1012500013700E4A13700E4A13700E4A13700E4A22
:10126000137010BD4A440041354400414B440041D5
:1012700000040040000C0040144000000008004240
:101280002AF600009C020020230300209D0200207B
:10129000A0020020240300202103002008B5C1B2D1
:1012A0000248FEF75FFF012008BDC046000800426B
:1012B000024B187E4007C00F7047C046000800422E
:1012C00008B5FFF7F5FF0028FBD00248FEF750FFF6
:1012D00008BDC0460008004208B5FFF7E9FF00233B
:1012E000984205D0FFF7ECFF031C233B5A425341C1
:1012F000181C08BD70B5041C0D1C4618B44204D05F
:101300002078FFF7CBFF0134F8E7281C70BD10B53B
:10131000041CFFF7D5FF2070012010BD0B0A5840B8
:10132000034B4000C05A0902484080B27047C04693
:10133000A6160000F7B50024051C0F1C261CBC4295
:1013400020D0FFF7BDFF114BC0B21B780190002BDE
:101350001AD1311CFFF7E2FF0D4B061C1A88002A38
:1013600004D10C4A11782A1C002907D001996A1C63
:101370002970802F02D11988013919800134A4B253
:10138000151CDCE7301C00E00120FEBD210300201D
:101390009E02002022030020F0B53E4E85B00022C0
:1013A00003900C1C32703C4B914201D1012201E0B0
:1013B0003A490C801A707F231C4201D080349C4330
:1013C000FFF77EFF3378C0B2002B07D000253570C1
:1013D000FFF776FF3378C0B2AB4236D1432803D053
:1013E000712853D01528EBD1012300930120FFF77A
:1013F00055FF0098FFF752FF00998025C843C0B2FF
:10140000FFF74CFF039B00270293244A1388002B0D
:101410001DD1214901930978002918D10198FFF7BE
:101420003DFF391C0198FFF779FF013D071C002D96
:10143000EBD1000AC0B2FFF731FFF8B2FFF72EFF81
:10144000FFF73EFF3378002B0AD035701FE002997A
:10145000013B09781380029B019101330293DDE780
:10146000C0B2062807D1009B03990133DBB280315B
:101470000093803C0391002CB8D10420FFF70EFFAD
:10148000FFF71EFF044B01251C7000E00025281CFF
:1014900005B0F0BD21030020220300209E020020A1
:1014A000F0B5384C87B0002301902370994201D1E8
:1014B000012301E0344A1180344A6426137043202A
:1014C000FFF7ECFE324FFFF7F3FE002803D1002FA9
:1014D00003D0013FF7E7002F03D1013E002EEED1EC
:1014E0004DE00125FFF7ECFE2378002B38D1C0B288
:1014F0000290012805D004283DD10620FFF7CEFE3A
:1015000039E005AE0221301CFFF714FF019880215D
:10151000FFF710FF23780390002B18D1FFF7D0FEC0
:101520000702FFF7CDFEBFB223783F18BFB2012BF1
:101530000DD0039B9F4207D13378AB4204D1EB43DC
:101540007278DBB29A4204D01820FFF7A7FE00237E
:1015500003E00620FFF7A2FE029B2278002A02D0B9
:10156000002626700BE0012B05D1019A6B1C8032FE
:10157000DDB20192B6E7054A002313700126301C44
:1015800007B0F0BD210300209E02002022030020AE
:1015900000350C0010B50023934203D0CC5CC4543A
:1015A0000133F9E710BD031C8218934202D0197071
:1015B0000133FAE770470023C25C0133002AFBD1F4
:1015C000581E7047F8B5C046F8BC08BC9E46704728
:1015D000F8B5C046F8BC08BC9E4670470403090431
:1015E00041726475696E6F204C4C430041726475A2
:1015F000696E6F204D4B52313030300012010002C5
:101600000200004041234E000002010200010000E0
:101610000800000010000000200000004000000052
:101620008000000000010000000200000004000033
:101630009D120000C1120000B1120000F51200005E
:101640000F13000099130000A11400007600200081
:1016500041707220313120323031390031333A302B
:10166000393A353100580A0D00590A0D005A002345
:101670000A0D003E00322E3000000000250B000055
:10168000410B00005D0B0000810B00009D0B000072
:10169000810B0000C50B00005B41726475696E6FC1
:1016A0003A58595A5D0000002110422063308440AE
:1016B000A550C660E770088129914AA16BB18CC121
:1016C000ADD1CEE1EFF13112100273325222B55298
:1016D0009442F772D662399318837BB35AA3BDD371
:1016E0009CC3FFF3DEE36224433420040114E66468
:1016F000C774A44485546AA54BB528850995EEE5C1
:10170000CFF5ACC58DD55336722611163006D77677
:10171000F6669556B4465BB77AA719973887DFF710
:10172000FEE79DD7BCC7C448E5588668A77840083F
:10173000611802282338CCC9EDD98EE9AFF9488960
:1017400069990AA92BB9F55AD44AB77A966A711AD7
:10175000500A333A122AFDDBDCCBBFFB9EEB799BB0
:10176000588B3BBB1AABA66C877CE44CC55C222C27
:10177000033C600C411CAEED8FFDECCDCDDD2AAD00
:101780000BBD688D499D977EB66ED55EF44E133EB7
:10179000322E511E700E9FFFBEEFDDDFFCCF1BBF50
:1017A0003AAF599F788F8891A981CAB1EBA10CD12A
:1017B0002DC14EF16FE18010A100C230E320045032
:1017C000254046706760B9839893FBA3DAB33DC3A5
:1017D0001CD37FE35EF3B1029012F322D232354282
:1017E000145277625672EAB5CBA5A89589856EF535
:1017F0004FE52CD50DC5E234C324A01481046674D2
:10180000476424540544DBA7FAB79987B8975FE784
:101810007EF71DC73CD7D326F2369106B016576621
:101820007676154634564CD96DC90EF92FE9C8990C
:10183000E9898AB9ABA94458654806782768C01871
:10184000E1088238A3287DCB5CDB3FEB1EFBF98BE4
:10185000D89BBBAB9ABB754A545A376A167AF10AC1
:10186000D01AB32A923A2EFD0FED6CDD4DCDAABDF4
:101870008BADE89DC98D267C076C645C454CA23C11
:10188000832CE01CC10C1FEF3EFF5DCF7CDF9BAFC4
:10189000BABFD98FF89F176E367E554E745E932E61
:1018A000B23ED10EF01E0000000000000114000046
:1018B0000902430002010080320904000001020213
:1018C0000000052400100104240200052406000184
:1018D0000524010001070583030800FF0904010036
:1018E000020A00000007058102400000070502020D
:1018F0004000000000C20100000008006900000074
:0819000041000000000000009E
:102000000080002049B6000031B6000031B6000063
:1020100000000000000000000000000000000000C0
:1020200000000000000000000000000031B60000C9
:10203000000000000000000031B600009DB6000066
:1020400031B6000031B6000031B60000059800003E
:10205000F5B5000031B6000031B6000035B600001D
:1020600031B6000031B6000031B600003DA00000DE
:1020700031B6000031B60000C1B3000031B6000037
:1020800031B6000031B6000031B6000031B60000B4
:102090000000000031B6000031B6000031B600008B
:1020A00031B6000031B6000031B6000031B6000094
:1020B0000000000010B5064C2378002B07D1054B1B
:1020C000002B02D0044800E000BF0123237010BDA4
:1020D000F002002000000000288B0100044B10B526
:1020E000002B03D00349044800E000BF10BDC046E8
:1020F00000000000F4020020288B01000F2370B5BF
:102100000400084E150003603200C9B2343008F0F4
:102110006DF92000E9B23200403008F067F9200084
:1021200070BDC0465C1200207047000010B5C16051
:10213000081C10F0DFFA074A074B0FF059F800228D
:10214000064B0FF05FFC10F033FA01000F2009F08E
:1021500057FD10BD5C8FC2F5285C0A4000F88F4027
:1021600070B5104E0D1C0400311C281C0DF0E8FD4C
:10217000002808D0FF206660C2B220000021343061
:1021800008F056F970BD65600749281C0EF0E6FAA4
:1021900010F0B0FA054A064B0FF034FC10F008FAC4
:1021A000EAE7C0469C337349000070428DEDB5A04C
:1021B000F7C6303F4068704770B50D1C0400816859
:1021C000281C0DF0C1FF0B492062281C0EF0C6FA36
:1021D00009490EF0C3FA10F08DFA084B084A0FF0C7
:1021E00011FC10F0E5F9C2B220000021403008F0E7
:1021F0001FF970BD00007A4400007042F7C6303FFE
:102200008DEDB5A070B51D1C049B04008360069B7A
:10221000016003613430161C08F04AF9002803D12C
:10222000114912480BF008FF2000403008F040F937
:10223000002803D10C490D480BF0FEFE0C2009F0DC
:1022400013FC022009F03CFC0A2009F033FC311C8D
:102250002000FFF76BFF291C2000FFF781FF059985
:102260002000FFF7A9FF70BDDC750100BC1700203E
:10227000F8B50E1C05004168301C0EF06FFA002105
:10228000071C0DF053FD012400282BD01849381CE1
:102290000DF04CFD002800D1041CE4B2002C1FD02E
:1022A0001449301C0EF05AFA10F024FA124A134B5B
:1022B0000FF0A8FB10F07CF910F0B0F90022104BE1
:1022C0000FF0A0FB00220F4B0FF09CFB00220E4BE7
:1022D0000EF072FC10F060FA011C2800FFF740FFBE
:1022E0002000F8BD0949381C0DF00CFDD2E7C046AE
:1022F00080969846000070428DEDB5A0F7C6303F3D
:1023000080842E410000703F00004E40809698C6A9
:10231000F7B50400C06810F0EDF92C4A2C4B0EF014
:1023200067FF00222B4B0FF06DFB10F041F901000D
:102330000F2009F065FC2368D8B209F0F3FB23698C
:1023400005006061181C019310F0D4F90022224BA3
:102350000FF058FB060028000F0010F05FF9020094
:102360000B00300039000FF04DFB10F015FAE76854
:10237000266A051C311C6062381C0DF0E5FE391C14
:102380000DF048FD311C071C281C0DF0DDFE011C62
:10239000381C0EF0E3F90026A062311C051C0DF07C
:1023A000ABFC002802D0E662E06AFEBD6168281C32
:1023B0000EF0A2F8291C061C01980EF0CFF9011CA2
:1023C000301C0DF0C1FEE062EEE7C0465C8FC2F546
:1023D000285C0A4000F88F400000303F006B7047D7
:1023E00070B50400481E0D000EF09CFB216B0EF032
:1023F00083F8E16A0DF00EFD061C28000EF092FB3A
:10240000011C301C0DF0A0FE206370BDF0B505006E
:102410002E002C008DB01836043003F095FB3000F0
:1024200003F092FB544B2C340093544A544B5549BF
:10243000200008F0AFFA544B2100EB622B00FC3374
:102440009E622C330393514A0023039808F004FD45
:102450002B00B533FF330493210000234C4A04982A
:1024600008F0FAFC90239B00EB1805932100002351
:10247000484A059808F0F0FCB3239B00EB1806933C
:1024800021000023444A069808F0E6FCD6239B006E
:10249000EB18079321000023404A079808F0DCFC62
:1024A000F9239B00EB180893210000233C4A08986D
:1024B00008F0D2FC8E23DB00EB18099321000023E7
:1024C000384A099808F0C8FC374B2100EB180A93EA
:1024D000364A00230A9808F0BFFCB123DB00EB1852
:1024E0000B9321000023324A0B9808F0B5FC314BC6
:1024F000314AEF1821000023380008F0ADFCD42346
:102500002E4EDB00E81831000BF071FF2C4B310030
:10251000E8180BF06CFFD723DB00E81831000BF054
:1025200066FF0399200008F0C2FA0499200008F021
:10253000BEFA0699200008F0BAFA0899200008F0BF
:10254000B6FA0A99200008F0B2FA0599200008F0BE
:10255000AEFA0799200008F0AAFA0999200008F0BD
:10256000A6FA0B99200008F0A2FA3900200008F022
:102570009EFA28000DB0F0BD637801005B070000F3
:10258000487801005378010004810100847801003B
:1025900097780100B3780100CF780100E878010056
:1025A0000179010018790100FC0400002F79010075
:1025B0004879010014060000617901009685010048
:1025C000AC060000D72310B50400DB00C0180BF0E8
:1025D000BFFE054BE0180BF0BBFED423DB00E01878
:1025E0000BF0B6FE200010BDAC060000F0B587B0C1
:1025F0000393D423002514000600DB00C3180560F4
:10260000180002930BF046FF324B2100F0180BF03C
:1026100041FF314F380003F02FF8304C0195FF286F
:102620001ED0D425ED003368032B1FD0019B039AE5
:1026300093424DDA2A4920000BF0D0FC0299200089
:102640000BF0F0FC234B7159F258380002F060FF98
:102650003060244809F066F8019B01330193E2E7FA
:10266000214920000BF0E8FC00202FE01F4920004A
:102670000BF0E2FC1E4920000BF0B0FC380002F029
:10268000C1FF010020000BF0D7FC380002F0B8FFBA
:10269000010004A80BF0A4FB164920000BF09EFCDF
:1026A00004A920000BF0DCFC380002F0B9FF0500A3
:1026B000114920000BF092FC0A22290020000BF0A7
:1026C000FDFC0E4920000BF0B7FC012007B0F0BD67
:1026D0000B49C6E7AC060000D00C0020BC17002058
:1026E000E277010010270000CA7701003678010068
:1026F0000178010008780100157801002D780100AB
:1027000032780100D72310B5DB00C0180BF0C2FEF1
:1027100010BD000070B52C30040008F0B1FB00289B
:1027200013D10D4D0D4928000BF058FC200008F086
:1027300037FB011E0AD0200008F098F9010028009C
:102740000BF066FC200008F09FF970BD04492800DA
:102750000BF072FCF9E7C046BC1700203076010090
:1027600047760100F0B58BB003910700B54907A883
:1027700005930492109C0BF03AFE0023236038006E
:10278000B1492C3008F068FA002800D154E13B0030
:102790002933FF33984214D13D00AC4E2E35AC495D
:1027A000FF3530000BF01AFC290030000BF044FC20
:1027B000A849280011F018F901230028DED00223CF
:1027C000DCE73B00B533FF3398421AD1A2499F485A
:1027D0000BF004FC3900BA31FF3107A80BF07CFE86
:1027E00007A80BF05CFF0325061C0FF083FF009584
:1027F00002000B0095480BF05DFD039BDE60256039
:10280000BDE790239B00FB1898421AD18F4E934945
:1028100030000BF0E3FB924B07A8F9180BF05CFEBD
:1028200007A80BF03CFF051C0FF064FF0B00022112
:102830000200009130000BF03DFD049BDD6004239D
:102840009CE7B3239B00FB1898421AD17F4E854921
:1028500030000BF0C3FB844B07A8F9180BF03CFECB
:1028600007A80BF01CFF051C0FF044FF0B00022112
:102870000200009130000BF01DFD039B5D600323FF
:102880007CE7D6239B00FB18984219D16F4E7749FD
:1028900030000BF0A3FB764B07A8F9180BF01CFED9
:1028A00007A80BF0FCFE051C0FF024FF0B00022113
:1028B0000200009130000BF0FDFC049B5D60BEE760
:1028C000F9239B00FB18984219D1604E69493000EA
:1028D0000BF084FB684B07A8F9180BF0FDFD07A867
:1028E0000BF0DDFE051C0FF005FF0B0002210200BE
:1028F000009130000BF0DEFC039B1D60BFE78E23D0
:10290000DB00FB18984219D1504E5C4930000BF0A7
:1029100065FB5B4B07A8F9180BF0DEFD07A80BF071
:10292000BEFE051C0FF0E6FE0B0002210200009126
:1029300030000BF0BFFC049B1D6080E7514BFB187F
:10294000984219D1414E504930000BF047FB4F4B94
:1029500007A8F9180BF0C0FD07A80BF0A0FE051C96
:102960000FF0C8FE0B0002210200009130000BF0B6
:10297000A1FC039B9D6082E7B123DB00FB1898421A
:1029800019D1324E424930000BF028FB414B07A8C9
:10299000F9180BF0A1FD07A80BF081FE051C0FF044
:1029A000A9FE0B0002210200009130000BF082FC16
:1029B000049B9D6043E7384BFB18984200D0DEE64D
:1029C000224E364930000BF009FB354B07A8F918A9
:1029D0000BF082FD07A80BF04FFE0A220500010054
:1029E00030000BF08AFB08232B4000D00123059A0E
:1029F0001370022201232A4069070ED4002A06D050
:102A0000039A13741D4005D0039A537437E7039952
:102A10000A74F7E7039B5D7431E7002A06D0049A35
:102A200013741D4005D0049A537408E704990A747E
:102A3000F7E7049B5D7402E707A80BF089FC0BB075
:102A4000F0BDC0469685010088130000BC17002029
:102A5000FB7601000377010006770100177701007C
:102A60004502000028770100D102000036770100FE
:102A70005D03000044770100E90300005077010086
:102A800075040000FC0400005C77010001050000F3
:102A90006A7701008D0500001406000078770100B8
:102AA00019060000F0B5314BA1B008A802000F00D4
:102AB000190070C970C20968103311600CAA1500A2
:102AC0008C4654CB54C51C680CAA2C6001AB62CA5E
:102AD00062C31C60634608990093099A0A9B10A878
:102AE00007F001FD0024224802F022FF0134021EFB
:102AF00008D1062CF7D11F491F480BF09DFA002082
:102B000021B0F0BD062CF6D0002310A807F0C7FDB9
:102B100004000D0007F0A2FE29000790200007F036
:102B2000ADFE29000600200007F0B0FE0300694654
:102B30003033F2B2DBB2097F380006F013FF290010
:102B4000200007F073FE29000790200007F076FEB2
:102B500029000600200007F079FE6946C3B2F2B2F0
:102B60003800097F06F0B2FE0120C9E704760100B3
:102B7000D00C0020E9760100BC170020F0B58FB022
:102B8000041D0E0002A83349150001930BF02FFC21
:102B900002A905A80BF08EFC2F4905A80BF005FD36
:102BA0000700149908A80BF085FC08A938000BF061
:102BB000EFFC2A490BF0F9FC070015990BA80BF064
:102BC00079FC0BA938000BF0E3FC25490BF0EDFC78
:102BD00031000BF0DDFC23490BF0E7FC29000BF082
:102BE000D7FC21490BF0E1FC01990BF0D1FC1F4906
:102BF0000BF0DBFC010020000BF014FA0BA80BF02B
:102C0000A7FB08A80BF0A4FB05A80BF0A1FB02A8EA
:102C10000BF09EFB16490BA80BF0E9FB154908A821
:102C20000BF0E5FB08A90BA80BF0B2FC010020009B
:102C30000BF0F8F908A80BF08BFB0BA80BF088FB46
:102C40000D4920000BF0F8F920000BF0D9F9012014
:102C50000FB0F0BD6176010066760100707601006C
:102C60007B760100847601008D7601009676010066
:102C7000A0760100A7760100B776010070B58AB092
:102C8000172301A80E0015000D490E4A05F036FC69
:102C900001A805F0F0FA041E0DD0310001A80BF0D8
:102CA000C1F9290001A80BF0BDF901A805F0D6FA79
:102CB00020000AB070BD044904480BF0BDF9F7E7E5
:102CC000D80F0020C9760100D6760100BC1700207D
:102CD00070B5164D164C8AB00E002000290005F084
:102CE00053FC002803D02900200005F059FC2100E6
:102CF00017232A0001A805F001FC01A805F0BBFA82
:102D0000041E0ED0002101A805F07AFA0A22310033
:102D100001A80BF00CFA01A805F0A0FA20000AB0F7
:102D200070BD044904480BF087F9F7E757760100B6
:102D3000D80F0020D6760100BC170020F0B591B066
:102D400007000D0001A81E490BF051FB1D4E1E4C43
:102D50003100200005F018FC011E02D13800FFF7F9
:102D6000B7FF21000123320007A805F0C7FB07A821
:102D700005F081FA041E1DD00A2207A904A80BF051
:102D8000CFFA04A901A80BF09FFB04A80BF0E0FA0E
:102D9000039B01A8591E0BF069FC01A80BF06CFC09
:102DA000286007A805F05AFA01A80BF0D1FA200014
:102DB00011B0F0BD054906480BF03EF9F4E7C046F6
:102DC0009685010057760100D80F0020D6760100C5
:102DD000BC17002010B5044802F04EFC03384342F3
:102DE0005841C0B210BDC046D00C0020F0B50C0058
:102DF0008DB0FE4903A817000BF0F9FA2100FC483A
:102E00000BF010F9FB4909A80BF0F1FA09A900220F
:102E100020000BF0E3FB050009A80BF099FA2B004A
:102E20000022210009A80BF0E9FB09A938000BF0EA
:102E30004BFB09A80BF08CFA0135EE4909A80BF001
:102E4000D6FA2A0009A920000BF0C8FB060009A841
:102E50000BF07EFA390006A80BF02CFBE64906A819
:102E60000BF0A3FB33002A000190210009A80BF00E
:102E7000C5FB09A901980BF08BFB010038000BF092
:102E800009FB09A80BF064FA06A80BF061FA0136F9
:102E9000D84909A80BF0ABFA320009A920000BF0C1
:102EA0009DFB050009A80BF053FA390006A80BF0AA
:102EB00001FBD24906A80BF078FB2B0032000190F1
:102EC000210009A80BF09AFB09A901980BF060FBFF
:102ED000010038000BF0DEFA09A80BF039FA06A859
:102EE0000BF036FA0135C34909A80BF080FA2A0025
:102EF00009A920000BF072FB060009A80BF028FAC4
:102F0000390006A80BF0D6FABC4906A80BF04DFB19
:102F100033002A000190210009A80BF06FFB09A9DA
:102F200001980BF035FB010038000BF0B3FA09A84B
:102F30000BF00EFA06A80BF00BFA0136AD4909A802
:102F40000BF055FA320009A920000BF047FB0500F1
:102F500009A80BF0FDF9390006A80BF0ABFAA74958
:102F600006A80BF022FB2B0032000190210009A8DB
:102F70000BF044FB09A901980BF00AFB0100380093
:102F80000BF088FA09A80BF0E3F906A80BF0E0F9BA
:102F90000135984909A80BF02AFA2A0009A920004E
:102FA0000BF01CFB060009A80BF0D2F9390006A8AB
:102FB0000BF080FA914906A80BF0F7FA33002A00CB
:102FC0000190210009A80BF019FB09A901980BF049
:102FD000DFFA010038000BF05DFA09A80BF0B8F930
:102FE00006A80BF0B5F90136824909A80BF0FFF9E4
:102FF000320009A920000BF0F1FA050009A80BF036
:10300000A7F9390006A80BF055FA7C4906A80BF081
:10301000CCFA2B0032000190210009A80BF0EEFA47
:1030200009A901980BF0B4FA010038000BF032FA4C
:1030300009A80BF08DF906A80BF08AF901356D4946
:1030400009A80BF0D4F92A0009A920000BF0C6FA50
:10305000060009A80BF07CF9390006A80BF02AFA43
:10306000664906A80BF0A1FA33002A00019021005E
:1030700009A80BF0C3FA09A901980BF089FA01001D
:1030800038000BF007FA09A80BF062F906A80BF05C
:103090005FF90136574909A80BF0A9F9320009A9CF
:1030A00020000BF09BFA050009A80BF051F939003C
:1030B00006A80BF0FFF9514906A80BF076FA2B0091
:1030C00032000190210009A80BF098FA09A9019893
:1030D0000BF05EFA010038000BF0DCF909A80BF0E8
:1030E00037F906A80BF034F90135424909A80BF06D
:1030F0007EF92A0009A920000BF070FA060009A841
:103100000BF026F9390006A80BF0D4F93B4906A8C4
:103110000BF04BFA33002A000190210009A80BF0B4
:103120006DFA09A901980BF033FA010038000BF091
:10313000B1F909A80BF00CF906A80BF009F9013652
:103140002C4909A80BF053F9320009A920000BF013
:1031500045FA050009A80BF0FBF8390006A80BF0AA
:10316000A9F9264906A80BF020FA2B00320001909D
:10317000210009A80BF042FA09A901980BF008FAFE
:10318000010038000BF086F909A80BF0E1F806A859
:103190000BF0DEF80135174909A80BF028F92A00D1
:1031A00009A920000BF01AFA060009A80BF0D0F8C4
:1031B000390006A80BF07EF9104906A80BF0F5F9C6
:1031C00033002A000190210009A80BF017FA09A981
:1031D00001980BF0DDF9010038000BF05BF909A84C
:1031E0000BF0B6F806A80BF0B3F809E096850100DD
:1031F000BC170020247601002A7601002676010003
:103200000136854909A80BF0F2F8320009A920001F
:103210000BF0E4F9050009A80BF09AF8390006A8AC
:103220000BF048F97D4906A80BF0BFF92B003200DE
:103230000190210009A80BF0E1F909A901980BF010
:10324000A7F9010038000BF025F909A80BF080F868
:1032500006A80BF07DF801356F4909A80BF0C7F8F7
:103260002A0009A920000BF0B9F9060009A80BF003
:103270006FF8390006A80BF01DF9684906A80BF095
:1032800094F933002A000190210009A80BF0B6F947
:1032900009A901980BF07CF9010038000BF0FAF84D
:1032A00009A80BF055F806A80BF052F801365A4958
:1032B00009A80BF09CF8320009A920000BF08EF948
:1032C000050009A80BF044F8390006A80BF0F2F845
:1032D000524906A80BF069F92B0032000190210039
:1032E00009A80BF08BF909A901980BF051F901001D
:1032F00038000BF0CFF809A80BF02AF806A80BF05D
:1033000027F80135444909A80BF071F82A0009A9EA
:1033100020000BF063F9060009A80BF019F839003A
:1033200006A80BF0C7F83D4906A80BF03EF933009C
:103330002A000190210009A80BF060F909A9019861
:103340000BF026F9010038000BF0A4F809A80AF0E8
:10335000FFFF06A80AF0FCFF01362F4909A80BF071
:1033600046F8320009A920000BF038F9050009A839
:103370000AF0EEFF390006A80BF09CF8274906A8D2
:103380000BF013F92B0032000190210009A80BF07B
:1033900035F909A901980BF0FBF8010038000BF092
:1033A00079F809A80AF0D4FF06A80AF0D1FF013580
:1033B0001B4909A80BF01BF82A0009A920000BF0F3
:1033C0000DF9019009A80AF0C3FF390006A80BF017
:1033D00071F8124906A80BF0E8F80600019B2A00D4
:1033E000210009A80BF00AF909A930000BF0D0F868
:1033F000010038000BF04EF809A80AF0A9FF06A852
:103400000AF0A6FF390007480AF00CFE03A80AF0EC
:103410009FFF0DB0F0BDC046247601002676010066
:103420002E760100BC1700200023F0B50400BF4D2C
:10343000AFB00E0007A82900059206930AF0D7FF47
:1034400029000AA80AF0D3FF29000DA80AF0CFFF2F
:10345000290010A80AF0CBFF290013A80AF0C7FF23
:103460002000FFF7B7FC0490002800D1C5E0B04F62
:10347000B04D3900280005F087F8002800D1DDE0C4
:1034800006A92000FFF75AFC25A801233A002900CD
:1034900005F034F825A804F0EEFE002800D125E15F
:1034A000069925A804F0ACFE0623039325A804F092
:1034B000C1FE002800D197E0039B013B0393002B42
:1034C00000D191E0271D50229B49380002F0C6FB35
:1034D000031E9A4800D184E022AD99490AF0ACFD60
:1034E0000A2225A928000AF01BFF290010A80AF0CB
:1034F000EBFF28000AF02CFF129B10A8591E0BF0BE
:10350000B5F80A2225A928000AF00AFF290013A805
:103510000AF0DAFF28000AF01BFF159B13A8591EBA
:103520000BF0A4F813A928000AF0C4FF07AA290089
:103530002000FFF75BFC28000AF00AFF129B002224
:10354000043B10A916A80BF059F8D723DB00E118AB
:1035500019A80AF0AFFF07A91CA80AF0ABFF794928
:103560001FA80AF044FF784928000AF040FF1FAB6B
:1035700019AA16A9009301951CAB2000FFF7FEFACB
:1035800028000AF0E5FE1FA80AF0E2FE1CA80AF0D7
:10359000DFFE19A80AF0DCFE16A80AF0D9FE3800F2
:1035A00002F07AFA00280CD0380002F03FFA002826
:1035B000F5D0380002F014FAC1B260480AF012FDEA
:1035C000EDE7FA20800008F0ADF8380002F020FAAC
:1035D00025A804F021FE010006902000FFF778FBEB
:1035E00064E75A490AF028FD25A804F023FE0500E7
:1035F00025A8002D17D004F031FE310022A80AF0D2
:1036000059FF059925A80AF055FF25AA22A92000EF
:10361000FFF734FB25A80AF09BFE22A80AF098FECB
:10362000002304936AE004F019FE290020000695A7
:10363000FFF74EFB3E493F4804F0B2FF271D5022E2
:103640003D49380002F00AFB002869D025AD0599F4
:1036500028000AF02FFF07AA29002000FFF7C6FB69
:1036600028000AF075FEB36800223100043B19A857
:103670000AF0C4FFD723DB00E1181CA80AF01AFFE8
:1036800022AE07A91FA80AF015FF2E4930000AF044
:10369000AEFE2D4928000AF0AAFE1FAB1CAA19A9EC
:1036A000019500962000FFF769FA28000AF050FE05
:1036B00030000AF04DFE1FA80AF04AFE1CA80AF0CE
:1036C00047FE19A80AF044FE380002F0E5F9002888
:1036D00011D0380002F0AAF90028F5D0380002F025
:1036E0007FF9C1B215480AF07DFCEDE7184913488F
:1036F0000AF0A2FCA2E7380002F08AF913A80AF047
:1037000027FE10A80AF024FE0DA80AF021FE0AA840
:103710000AF01EFE07A80AF01BFE04982FB0F0BDA9
:103720000A4906480AF088FC67E7C046968501000A
:10373000C9760100D80F0020A7760100BC17002031
:10374000807701008F77010098770100AF77010043
:10375000D676010010B5054905480AF06DFC054A0A
:103760000549064801F00CFB10BDC04699790100DF
:10377000BC170020740B00201C030020380C002014
:10378000F7B5164D07002800019106F0A9F90400CD
:10379000280006F09BF90600280006F08DF9FA23B0
:1037A000DB00E4180E4BA4B2E41876016402304347
:1037B00020433880280006F075F90400280006F040
:1037C00067F90600280006F059F97601E40234434F
:1037D000019B401020431880F7BDC046740B0020A9
:1037E00044F8FFFF4B6830B543608B68020083608C
:1037F000CB680D00C360002310321035EC5CD4544C
:1038000001330D2BFAD10B6A036230BD30B597B08E
:10381000BC4901A80AF0EBFDBB4D04A80123BB4A3B
:10382000290004F06BFE04A804F025FD002838D020
:103830000A2204A90DA80AF073FDB54C0DA92000B9
:103840000AF042FE0DA80AF083FDA3682000591E6D
:103850000AF00CFF0A2204A90DA80AF061FDAD4C84
:103860000DA920000AF030FE0DA80AF071FDA36832
:103870002000591E0AF0FAFE0A2204A90DA80AF037
:103880004FFDA54C0DA920000AF01EFE0DA80AF060
:103890005FFDA3682000591E0AF0E8FE04A804F0AA
:1038A000DDFC01239D4A29000DA804F027FE0DA987
:1038B00004A8FFF797FF04A804F0DDFC002800D15E
:1038C00085E00A2204A90DA80AF02AFD0DA901A885
:1038D0000AF0FAFD0DA80AF03BFD039B01A8591E52
:1038E0000AF0C4FE01A80AF0DAFE8D4C0A2220601C
:1038F00004A90DA80AF014FD0DA901A80AF0E4FD21
:103900000DA80AF025FD039B01A8591E0AF0AEFE82
:1039100001A80AF0C4FE0A22606004A90DA80AF0FA
:10392000FFFC0DA901A80AF0CFFD0DA80AF010FDBB
:10393000039B01A8591E0AF099FE01A80AF0AFFEE8
:103940000A22A06004A90DA80AF0EAFC0DA901A8AA
:103950000AF0BAFD0DA80AF0FBFC039B01A8591E52
:103960000AF084FE01A80AF09AFE0A22E06004A987
:103970000DA80AF0D5FC0DA901A80AF0A5FD0DA817
:103980000AF0E6FC039B01A8591E0AF06FFE01A88D
:103990000AF072FE431E98410A22207404A90DA861
:1039A0000AF0BEFC0DA901A80AF08EFD0DA80AF0D0
:1039B000CFFC039B01A8591E0AF058FE01A80AF08B
:1039C0005BFE431E9841607404A804F047FC012389
:1039D000544A4D490DA804F091FD0DA904A8FFF724
:1039E00001FF04A804F047FC002800D185E00A226A
:1039F00004A90DA80AF094FC0DA901A80AF064FD21
:103A00000DA80AF0A5FC039B01A8591E0AF02EFE82
:103A100001A80AF044FE444C0A22206004A90DA823
:103A20000AF07EFC0DA901A80AF04EFD0DA80AF0CF
:103A30008FFC039B01A8591E0AF018FE01A80AF08A
:103A40002EFE0A22606004A90DA80AF069FC0DA9E7
:103A500001A80AF039FD0DA80AF07AFC039B01A821
:103A6000591E0AF003FE01A80AF019FE0A22A060FE
:103A700004A90DA80AF054FC0DA901A80AF024FD20
:103A80000DA80AF065FC039B01A8591E0AF0EEFD83
:103A900001A80AF004FE0A22E06004A90DA80AF0B9
:103AA0003FFC0DA901A80AF00FFD0DA80AF050FC7B
:103AB000039B01A8591E0AF0D9FD01A80AF0DCFDFC
:103AC000431E98410A22207404A90DA80AF028FC7C
:103AD0000DA901A80AF0F8FC0DA80AF039FC039B17
:103AE00001A8591E0AF0C2FD01A80AF0C5FD431E37
:103AF0009841607404A804F0B1FB01A80AF028FC06
:103B000017B030BD96850100D80F0020567A01000D
:103B1000280C0020680B002044030020607A01007C
:103B2000080000206B7A01001C00002030B597B01F
:103B300004A804F057FB2D4C2D4D2000290004F063
:103B40002FFD17232A0021000DA804F0D7FC0DA992
:103B500004A8FFF747FE04A804F08DFB254C0028BD
:103B600032D020680EF0C6FD022502000B00009541
:103B700004A80AF09FFB60680EF0BCFD00950200EF
:103B80000B0004A80AF096FBA0680EF0B3FD013507
:103B900002000B00009504A80AF08CFBE0680EF010
:103BA000A9FD00950B00020004A80AF083FB217C0C
:103BB0000A2204A80AF0A1FA617C0A2204A80AF0E9
:103BC0009CFA04A804F04AFB0B4B10210293636893
:103BD0000A4801930A4B00932368A268FEF712FB80
:103BE000084909480AF028FA17B030BDD80F00205C
:103BF000607A0100080000201B2F5540780B002040
:103C000000007A44A0790100BC17002030B597B0BD
:103C100004A804F0E7FA2D4C2D4D2000290004F0F3
:103C2000BFFC17232A0021000DA804F067FC0DA992
:103C300004A8FFF7D7FD04A804F01DFB254C0028BD
:103C400032D020680EF056FD022502000B000095D0
:103C500004A80AF02FFB60680EF04CFD00950200EE
:103C60000B0004A80AF026FBA0680EF043FD013506
:103C700002000B00009504A80AF01CFBE0680EF09F
:103C800039FD00950B00020004A80AF013FB217C0B
:103C90000A2204A80AF031FA617C0A2204A80AF078
:103CA0002CFA04A804F0DAFA0B4B11210293636892
:103CB0000A4801930A4B00932368A268FEF7A2FA10
:103CC000084909480AF0B8F917B030BDD80F0020EC
:103CD0006B7A01001C0000201B2F5540C40B0020F4
:103CE00000007A44B1790100BC170020F7B5284FD5
:103CF0003B7C002B0FD0274D274928000AF09CF968
:103D00000021F8680BF0F8FF244E041E04D00021B7
:103D1000300000F051FFF7BD30000A2100F04CFFE9
:103D2000300000F063FFFA20800007F0FBFC1C4924
:103D300028000AF053F9300000F05DFF0EF0DAFCC5
:103D40000B0003210200009128000AF0B3FA0122BF
:103D5000F968300000F064FF0028DCD11149280028
:103D60000AF03CF9300000F055FF0EF0C3FC0B00E8
:103D700002210200009128000AF09CFA21000A2288
:103D8000280001340AF0B9F9142CCCD1C3E7C0469D
:103D900008000020BC170020C27901005003002059
:103DA000E5790100F8790100F7B5284F3B7C002B3D
:103DB0000FD0274D274928000AF03EF90021F86866
:103DC0000BF09AFF244E041E04D00021300000F0B6
:103DD000F3FEF7BD30000A2100F0EEFE300000F0E7
:103DE00005FFFA20800007F09DFC1C4928000AF01E
:103DF000F5F8300000F0FFFE0EF07CFC0B00032114
:103E00000200009128000AF055FA0122F9683000FA
:103E100000F006FF0028DCD1114928000AF0DEF886
:103E2000300000F0F7FE0EF065FC0B0002210200EE
:103E3000009128000AF03EFA21000A2228000134ED
:103E40000AF05BF9142CCCD1C3E7C0461C0000205B
:103E5000BC1700200C7A0100F80300202F7A010023
:103E6000427A010037B5154C2000FEF7B3FF002859
:103E70000FD02000FEF74EFC114D124B0095124A58
:103E800012492000FEF76EFC2B68012B02D1104A6C
:103E9000137037BD022B03D100220D4B1A70F8E7C7
:103EA000032B04D1FFF722FFFFF740FEF1E7042BBD
:103EB000EFD1FFF779FFFFF7A9FEEAE7A40400209E
:103EC000340C0020300000201C00002008000020DE
:103ED000240C0020F8B54E4D280000F013FF4D4C87
:103EE0004D49220028000AF01DFC4C4D2D222C21AA
:103EF0002800FEF703F94A4E2200310028000AF09C
:103F000011FC484D2F222E212800FEF7F7F8220041
:103F1000310028000AF006FC434D4021280000F043
:103F2000E5FD424E2200310028000AF0FBFB404D27
:103F30004121280000F0DAFD2200310028000AF0BB
:103F4000F1FB3C4805F05AFC3B4E3C4F3100380039
:103F50000AF04DFA3A4D2200290038000AF0E2FB3F
:103F6000384F310038000AF042FA290022003800A8
:103F70000AF0D8FB344F380001F048F822003349EA
:103F800038000AF0CFFB324F380000F09DFD2200D0
:103F9000304938000AF0C6FB2F4F3800FEF736FADA
:103FA00022002E4938000AF0BDFB2D4F31003800A9
:103FB0000AF01DFA2200290038000AF0B3FB294F4D
:103FC000310038000AF013FA2200290038000AF004
:103FD000A9FB254E254930000AF009FA22002900E4
:103FE00030000AF09FFB224E224930000AF0FFF910
:103FF0002200290030000AF095FB1F4E1F493000B7
:104000000AF0F5F92900300022000AF08BFBF8BD18
:10401000380C002000000020074D0000780B002025
:1040200029210000C40B0020500300204D4B00004C
:10403000F8030020740B0020968501001C0300206B
:1040400051E3000010030020100C0020315000004C
:1040500040030020CB4A0000A4040020C525000036
:104060002803002034030020280C0020747901006C
:10407000680B00208A790100440300209479010034
:104080009621F0B55B4C8DB08901200008F0D6FA7E
:10409000200008F023FC0028FAD05749200009F03E
:1040A000CBFF564F0421380000F02EFE544EFFF790
:1040B000ADFB5449200009F0BFFF534A02965368F4
:1040C000524D019300951368102192685048FEF7F5
:1040D00099F85049200009F0AFFF4F4A0296536803
:1040E000009501931368112192684C48FEF78AF8F5
:1040F0004B49200009F0A0FF01220221494800F0AD
:1041000027FD4949200009F097FF05220321474870
:1041100000F01EFD464D0721280000F0D7FC454B5E
:104120002800197800F0D9FC4349200009F084FFE9
:10413000424800F08BFF424D0021280005F00AFDA7
:10414000002307211A00280005F0C0FB16230822CF
:104150000121280005F006FC3A4906A80AF0AAF950
:10416000394909A80AF0A6F9384E032309AA06A975
:104170003000FEF73BFA059009A80AF0E9F806A816
:104180000AF0E6F8059B002B08D029003000FEF766
:1041900089FC002802D001222D4B1A702D4909A854
:1041A0000AF088F909A92948FEF7ACFA09A80AF02B
:1041B000CFF8002328001A00190005F021FC280080
:1041C000032105F02DFB2800234905F03DFB234B7F
:1041D000234E244A31001A6038002A0000F0D0FD36
:1041E0003100200009F01EFFFFF780FDFFF7DCFD26
:1041F0000DB0F0BDBC170020BA7A0100380C0020C9
:104200001B2F5540CD7A01000800002000007A44A1
:10421000780B0020E97A01001C000020C40B00206C
:10422000057B010050030020207B0100F8030020E3
:1042300040030020300000203B7B0100100C0020D8
:10424000740B0020280C0020680B0020A404002020
:10425000440C002044030020553700004810002083
:104260001C0300208137000070B598B0C64968462D
:104270000AF0BDF8C54C200008F01EFB050006A89A
:1042800003F0B0FFE9B2200009F0E0FEE8B24138E7
:1042900016282FD80BF066FBEA012E00BA002E007C
:1042A0002E001B002E002E002E002E002E002E00B1
:1042B0002E002E007D0033002E002E0017002E0051
:1042C0002E00E8011E00B24B01221A7012E0B04B22
:1042D0000022FAE721000FA80AF00EF8AD4D0FA951
:1042E00028000AF0F1F80FA80AF032F8290020009F
:1042F00009F098FE68460AF02BF818B070BD21004E
:104300000FA809F0F9FFA44D0FA928000AF0DCF866
:104310000FA80AF01DF82900200009F083FE9F4C29
:104320009F4E2000310004F03BF91723320021009A
:104330000FA804F0E3F80FA906A8FFF753FA06A8A0
:1043400003F099FF934C00280ED0210006A809F035
:1043500069FE290006A809F065FE924906A809F041
:1043600061FE06A803F07AFF21000FA80AF0A2F868
:10437000894903A80AF09EF8012303AA0FA98A48D5
:10438000FEF734F903A809F0E3FF0FA809F0E0FFF6
:10439000B0E721000FA809F0AFFF824D0FA9280058
:1043A0000AF092F80FA809F0D3FF2900200009F0C5
:1043B00039FE7B4E794C3100200004F0F1F81723D0
:1043C000320021000FA804F099F80FA906A8FFF702
:1043D00009FA06A803F04FFF00280ED06D4906A881
:1043E00009F020FE6C4906A809F01CFE290006A869
:1043F00009F018FE06A803F031FF29000FA80AF003
:1044000059F80FA96848FEF77DF9BEE7200008F0CB
:1044100053FAC5B2200008F04FFAC0B2472851D075
:104420000ADC412800D1C5E0442872D0312D30D0BB
:10443000322D00D05EE742E0522818D0562800D135
:10444000E7E04828F2D1312D00D089E021000FA803
:1044500009F052FF0FA968460AF036F80FA809F0D4
:1044600077FF68460AF01BF9504BD86011E0312DF8
:1044700012D121000FA809F03FFF0FA968460AF0EA
:1044800023F80FA809F064FF68460AF008F9474BC3
:104490001860FFF74BFB2DE7322D00D02AE72100F3
:1044A0000FA809F029FF0FA968460AF00DF80FA818
:1044B00009F04EFF68460AF0F2F83D4B1860FFF72E
:1044C000A5FB17E7312D10D121000FA809F014FF2B
:1044D0000FA9684609F0F8FF0FA809F039FF6846F0
:1044E0000AF0DDF8314B5860D3E7322D00D001E7F8
:1044F00021000FA809F000FF0FA9684609F0E4FFAA
:104500000FA809F025FF68460AF0C9F8284B586043
:10451000D5E7312D10D121000FA809F0EDFE0FA92C
:10452000684609F0D1FF0FA809F012FF68460AF0AB
:10453000B6F81E4B9860ACE7322D00D0DAE62100C9
:104540000FA809F0D9FE0FA9684609F0BDFF0FA812
:1045500009F0FEFE68460AF0A2F8154B9860AEE737
:10456000322D00D0C6E621000FA809F0C5FE0FA924
:10457000684609F0A9FF0FA809F0EAFE68460AF0AC
:104580008EF80B4BD8609AE796850100BC17002087
:10459000240C0020280C0020680B0020D80F0020DD
:1045A000567A010044030020A404002008000020E3
:1045B0001C000020312D14D121000FA809F09CFE11
:1045C0000FA9684609F080FF0FA809F0C1FE6846F0
:1045D0000AF052F8431E9841254B1874FFF786FBEA
:1045E00057E7322D00D085E621000FA809F084FEA0
:1045F0000FA9684609F068FF0FA809F0A9FE6846F0
:104600000AF03AF8431E98411A4B1874FFF7CCFB96
:1046100055E7312D12D121000FA809F06DFE0FA929
:10462000684609F051FF0FA809F092FE68460AF0AB
:1046300023F8431E98410E4B58742AE7322D00D0C0
:1046400058E621000FA809F057FE0FA9684609F0A7
:104650003BFF0FA809F07CFE68460AF00DF8431EE8
:104660009841044B58742AE7034B2DE6024B2FE682
:10467000080000201C0000203000002010B5044875
:1046800008F0DEF8002801DDFFF7EEFD10BDC046A2
:10469000BC170020F0B5E54B8DB01978E44800F068
:1046A0001CFAFFF7DFFBFFF7E9FFE24B1B78002B5B
:1046B00000D007E2E04A1278002A00D1A0E0DE4AEA
:1046C0000125137006F0F8FF0326DC4B1860DC4C64
:1046D000DC49200009F082FCDB4F380000F08BFA47
:1046E0000EF008F8009602000B00200009F0E2FD31
:1046F000D64B1A7C002A04D00022D968380000F07A
:104700008FFAD349200009F069FC380000F082FAE2
:104710000DF0F0FF0B00022102000091200009F0D3
:10472000C9FDCC49200009F059FCCB4F380000F0FE
:1047300062FA0DF0DFFF009602000B00200009F086
:10474000B9FDC64B1A7C002A04D00022D968380073
:1047500000F066FAC249200009F040FCBE4800F0B3
:1047600059FA0DF0C7FF0B00022102000091200052
:1047700009F0A0FDBB49200009F030FCBA4F380019
:10478000FDF7C6FDB9490BF0DFFC0DF0B3FF009655
:1047900002000B00200009F08DFD29003800FDF714
:1047A0001FFEB349200009F019FCB24F3800FDF795
:1047B000AFFDAE490BF0C8FC0DF09CFF0096020067
:1047C0000B00200009F076FD29003800FDF708FEF7
:1047D000A949200009F002FC0135A84806F0A2FF13
:1047E0000C2D00D073E7A649200009F0F7FB06F076
:1047F00063FFA44B0A221968411A200009F097FCB4
:1048000006F05AFF9F4E3368C01A9F4B984200D85B
:1048100058E1894B1B78002B00D053E19B4D864A11
:1048200001332800137000F009FC854809F0E8FB0B
:104830008D48FDF7D3FD8D490BF086FC944C20602C
:104840008C48FDF7CBFD89490BF07EFC60602800A9
:1048500000F0FAFBA060280000F0F4FB7A4FE06063
:10486000380000F0C8F97C4D2061280000F0C3F941
:104870006061380000F0CEF9A061280000F0CAF9AC
:10488000724F764DFB68E0612362EB6877496362A3
:1048900038680BF059FC7549A06228680BF054FC8D
:1048A0007249E06278680BF04FFC704920636868D9
:1048B0000BF04AFCBB686063A363AB68E3637B7C7B
:1048C000002B0ED06848FDF789FD011C6648FDF7F6
:1048D000CFFC002805D06448FDF76CFC3860FFF77A
:1048E00025F96B7C002B0ED06248FDF777FD011C8B
:1048F0006048FDF7BDFC002805D05E48FDF75AFC76
:104900002860FFF783F95E494D4809F067FB06F020
:10491000D3FEFA2133688900C01A0BF02DF80A2261
:104920000100474809F003FC06F0C6FE594D30600F
:10493000290009A809F0BEFD574B584A01931023DE
:1049400009A900935648230000F080FA09A809F04D
:10495000FFFC544E3000FEF73DFA041E18D15249B8
:1049600006A809F0A7FD514909A809F0A3FD0123F4
:1049700009AA06A93000FDF739FE060009A809F0CA
:10498000E7FC06A809F0E4FC002E01D0484B1C709F
:10499000290006A809F08EFD3F4903A809F08AFD09
:1049A000444903A809F001FE010009A809F082FDAD
:1049B0003C4C09AA06A92000FEF736FD09A809F01B
:1049C000C7FC03A809F0C4FC06A809F0C1FC384ED6
:1049D0003378002B12D12000FEF7FCF900280DD00F
:1049E0002E4F20003900FEF75DF8002806D03A006F
:1049F00029002B4800F0C4F9012333702E4C2F4DB1
:104A000023682F49013323602B680D4801332B6045
:104A100009F0E4FA0A222968094809F06EFB2368C4
:104A2000052B4FD1002323604CE0C046300000200E
:104A300040030020240C0020040000203C0C002037
:104A4000BC170020E5790100500300200800002079
:104A5000F87901002F7A0100F80300201C000020E3
:104A6000427A0100767A0100780B002000007A4437
:104A70008C7A0100C40B0020E3790100C409000016
:104A8000A27A0100400C0020A7DE0000100C0020DC
:104A9000480C00201C03002034030020740B00206D
:104AA000380C0020A4040020280C0020680B0020F3
:104AB000440C0020AA7A01000C030020A00400206E
:104AC000B07A01000DB0F0BD7047704710B50160BD
:104AD000C8B2012107F07EF910BD006810B5C0B260
:104AE000002900D0012107F0C1F910BDD0B5002682
:104AF000124F8AB00400083006F052FB089609975E
:104B000000260F4F23000696079700260D4F220020
:104B10000496059700260C4F21000296039720006B
:104B2000002600273033283220310096019740308C
:104B300006F037FA20000AB0D0BDC046000044405D
:104B40000000494000006940008056407047000066
:104B500037B504002500016042600835C8B2012164
:104B600007F038F9280006F0C3FB002803D00C49F1
:104B70000C4809F061FA072300220193083328004A
:104B80000093110006F090FB074B2800009383234D
:104B9000064ADB05064906F025FB064BA36337BD35
:104BA000687B0100BC170020CDCCCC3E0AD7233D4A
:104BB000CDCCCC3DF6289C3F10B5040008000DF08C
:104BC0002DFD0022074B0CF013FB0022064B0CF0CE
:104BD00019FF0DF0EDFC01002068C0B207F010F8DD
:104BE00010BDC0460000594000F88F4010B540305D
:104BF00006F0F2F910BD70B50400083006F0D4FBE1
:104C0000A16B0BF0A1FA051C0DF074FD206261622E
:104C1000281C70BD10B5083006F0B4FB10BD0000B4
:104C2000F0B5040085B0081C15000DF063FD02000E
:104C30000B00206A616AA262E3620DF055F900225E
:104C4000002306000F000BF037F86A460123D373E8
:104C5000274A002828D0274B300039000BF02CF8C9
:104C6000002801D16B46D8736B46DB7B002B21D02B
:104C70002000403006F0BCF9206B616B0DF098FC11
:104C800001002000FFF798FF1B4D1C49280009F088
:104C9000A5F9226B636B02212800009109F00AFB41
:104CA0000025280005B0F0BD154B300039000AF092
:104CB000EFFFD5E7002D18D02000403006F098F91E
:104CC000206B616B0DF074FC01002000FFF774FF96
:104CD000094E0A49300009F081F9226B636B022109
:104CE0003000009109F0E6FADBE70125D9E7C0467C
:104CF0007B14AE47E17A743FBC170020627B010051
:104D0000E17A74BF7047704710B5C9B2054803F027
:104D10005FFB041E03D10449044809F08DF920000B
:104D200010BDC046D80F0020C97B0100BC17002071
:104D300030B5040087B01500092A19DC0F4903A813
:104D400009F055FB0A222900684609F06FFB694605
:104D500003A809F01DFC0100200009F0ABFB684628
:104D600009F0F6FA03A809F0F3FA200007B030BD05
:104D70000A22290009F05AFBF7E7C046228B0100FE
:104D8000F0B5150093B004000E0003A8294909F0FE
:104D90002EFB280004F0A4FE210002006846FFF765
:104DA000C7FF694603A809F0F3FB0700280004F0D9
:104DB0008DFE2100020006A8FFF7BAFF06A9380001
:104DC00009F0E6FB0700280004F076FE210002004F
:104DD00009A8FFF7ADFF09A9380009F0D9FB16496A
:104DE00009F0E3FB0100300009F054FB09A809F0C9
:104DF000AFFA06A809F0ACFA684609F0A9FA03A8C8
:104E000009F0A6FA0D491723326809A803F076FBCA
:104E100009A803F030FA0A4D041E0A4903D009A874
:104E200003F01CFA0849280009F006F9200013B025
:104E3000F0BDC046F48A0100667A0100D80F002058
:104E4000BC170020B37B0100967B0100F0B5040085
:104E5000A1B0100003931500029104F02DFE210073
:104E6000020005A8FFF764FF05A908A809F022FBC6
:104E7000554E08A8310009F098FB0700280004F0FF
:104E800025FE210002000BA8FFF752FF0BA93800F6
:104E900009F07EFB310009F088FB0600280004F0D1
:104EA0001FFE210002000EA8FFF742FF0EA93000EE
:104EB00009F06EFB454F390009F077FB060028002A
:104EC00004F0F0FD2100020011A8FFF731FF11A945
:104ED000300009F05DFB3E4E310009F066FB0190A9
:104EE000280004F0D5FD2100020014A8FFF720FFE0
:104EF00014A9019809F04CFB310009F056FB06009B
:104F0000280004F0BBFD2100020017A8FFF710FFE6
:104F100017A9300009F03CFB0100279809F0BAFA04
:104F200017A809F015FA14A809F012FA11A809F047
:104F30000FFA0EA809F00CFA0BA809F009FA08A854
:104F400009F006FA05A809F003FA224D22492800C3
:104F500009F044F82799280009F064F80024269BFA
:104F60009C4215DA279917A809F0A4FA390017A866
:104F700009F01BFB039AA300D15809F024FB0100A0
:104F8000279809F087FA17A809F0E2F90134E6E753
:104F9000029A17231268114917A803F0AFFA17A84D
:104FA00003F069F9041E09D0279917A809F03AF807
:104FB00017A803F053F9200021B0F0BD08492800DC
:104FC00009F03AF8F7E7C0466E7601002476010052
:104FD0002B780100BC1700208E7B0100D80F002029
:104FE000D676010010B50400024B036005F048F9C5
:104FF000200010BDF07B010010B50400FFF7F2FFA8
:10500000200009F077FB200010BD0000054B036075
:10501000002303718360044B1B68C360034B1B6850
:1050200003617047F07B0100C07E0100B87E010083
:1050300010B50400FFF7D6FF200010BD10B505F035
:105040000DF910BD00697047C068704770B5050064
:10505000074C200004F028FE2100280005F01CF970
:10506000002803D10349044808F0E6FF70BDC0469C
:105070005C120020F87B0100BC17002070B5060010
:105080000C008D18AC4207D0336821789B68300043
:10509000984720700134F5E770BD7047704710B530
:1050A0000400406807F064F80023237610BD10B5B3
:1050B000406807F082F810BDF8B5050040680C00A4
:1050C00007F076F82B68E7B2260A9B68012810D112
:1050D00039002800FF2798472B68BC4304439B688E
:1050E000310028009847030220003840184380B25E
:1050F000F8BD310028009847FF262B680002344095
:1051000004439B68390028009847B4432043EEE7E6
:1051100010B5040009F0EEFA200010BD10B54B1CCC
:105120000BD0102909D0EFF3108472B6102905DDD9
:1051300002234376002C00D162B610BD0123427ECB
:105140001A43427618224A430449891816228A567D
:105150009340C2691343C361ECE7C046208101005C
:105160004B1C17D0102915D0437E9B0712D4EFF3A8
:10517000108272B618234B430749C9180123897D51
:1051800049B28B40C1699943C16100D14176002A7F
:1051900000D162B67047C04620810100437E002BDB
:1051A00005D09A0704D5837E002B00D062B67047E5
:1051B000DB07FCD5C369024A9BB2D360F7E7C04660
:1051C00000180040037E002B04D143768376C36130
:1051D00001330376704700007FB5036902AE040017
:1051E0000D00029172608B4203D1828AB3889A4289
:1051F00026D020000622310010300DF0FAFB606846
:1052000006F0CDFF7379E17A013B581E8341227B82
:1052100000936068002307F05FF933790021013BB8
:10522000DBB2022B01D8074AD15C074B2A009D4212
:1052300000D91A00606806F083FF606806F0A5FFD9
:105240007FBDC0461C7C0100001BB70070B518264E
:105250000400FFF7B7FF33000821207A0D4D4343C8
:10526000EB18595606F02EFE33000821A07A43436E
:10527000EB18595606F026FE0821607A4643AD1910
:10528000695606F01FFE044B200006CBFFF7A4FF73
:1052900070BDC04620810100C80C002007B5437EC8
:1052A00000910192002B07D09A070AD5EFF31083E3
:1052B0005A425341837672B60099019AFFF78CFFE8
:1052C00007BDDB07F8D5C369014A9BB29360F3E7DA
:1052D00000180040F7B500240125194B194A5D71EB
:1052E0001A601C71184B1948083301930360184B5E
:1052F000184F4360184B194E038109233A003100BF
:105300004575046104758372063B0476C4720373A9
:1053100009F008FA1248134B019A4360124B457585
:1053200003811B233100026004613A00047583721B
:10533000183B0476C472037309F0F4F9F7BDC04654
:10534000C80C002000093D00207C0100880C0020D2
:10535000F4160020000000200A0800009D50000004
:10536000A80C00200C1700201D1A0000014B196228
:105370007047C046D00C002010B502F09DFE10BD55
:1053800030B587B0040000F0A5FC134B68460093CD
:1053900001F0DEF8051E02D003000D3319D102F032
:1053A0007DF90E490E4802F095F9210000230122F3
:1053B000293122600B70E2610A4A23616361A361B3
:1053C000236263621268084B9A4202D9D32000F02C
:1053D000A5FF280007B030BDBD5800006D53000088
:1053E00079530000600D00204F130000F8B50368EA
:1053F0000400002B01D1FFF7C3FFE369002B03D0AA
:10540000002323616361A361250001F0DDF82935E4
:10541000002802DA04202870F8BD002326002B7033
:1054200028360133337006F047F9070006F044F9D7
:10543000236FC01B984206D2002001F0C1F807225A
:105440002B781342F2D0200021224D3000210DF0A4
:10545000ECFA03222B78134002D133702878DBE773
:1054600001F0B4F9002001F0ABF8F7E7F0B51F0048
:10547000036885B004000D001600002B01D1FFF772
:105480007FFFE369002B03D0002323616361A361E5
:1054900028000EF0BBFAFF23C1B2009332003B009C
:1054A0002800260001F027F92936002805DA042310
:1054B00033701E00300005B0F0BD002327003370AC
:1054C000283701333B7006F0F7F8039006F0F4F844
:1054D000039BC01A236F984206D2002001F070F897
:1054E000072233781342F1D003233678334000D1BA
:1054F0003B704D342122002120000DF096FA280047
:105500000EF084FA2900020020000DF072FAD1E7B3
:1055100010B513000222FFF7A9FF10BDF0B51F0060
:105520000368A5B004000D001600002B01D1FFF7A1
:1055300027FF8822002102A80DF077FA290002A88F
:105540000EF05CFA02AB0233DF773F230122002723
:1055500002A95B181A70412012AB1F70C0230918F2
:105560000B7002A97E3B5B18A8211970432302A986
:105570005B181A70310013AB02A81A70260001F0F4
:10558000DDF82936B84203DA0B20307025B0F0BDC3
:105590000A2333702300022228331A70253318009F
:1055A0001F32390001930DF040FA28000EF02EFA58
:1055B0002900020001980DF01CFA4123200002A9E5
:1055C0005B1810301900042200F04EFC024B63619E
:1055D0002369A3613078D9E7FFFFFF0037B56D4637
:1055E00008000C0001F09CF8280001F099F8002355
:1055F000EA1A5279E2540133062BF9D120003EBD5C
:1056000000697047030029331B78032B03D0073B45
:105610000022012B01D802004D321000704700001B
:10562000030070B528331B780500002B1ED0002422
:10563000002000F0C5FF2C6201F066F80300200096
:10564000A34212DB06F038F806002C6A002C09D1C0
:1056500006F032F8074B801B984203D8200000F078
:10566000AFFFF2E70023286A2B6270BD642040423E
:10567000FBE7C046E703000010B503680400002BF9
:1056800001D1FFF77DFE2934002000F099FF20783A
:1056900010BD000030B587B004000D00FFF7A6FE76
:1056A000032811D069462000FFF798FF6B466A4631
:1056B0001B785278074902A80EF068F92B00064AB9
:1056C00002A92000FFF72AFF2000FFF7D5FF07B04F
:1056D00030BDC0465C7C01006D7C010010B501212D
:1056E000FFF7D8FF10BD0000F0B5040085B015002D
:1056F000132900D1A1E011D8062900D1C8E003D8B0
:10570000042965D005B0F0BD092965D01129F9D16A
:105710001378002BF6D02934022325E02A291DD046
:105720000AD81B29EED1006A0028EBD008222900F4
:105730000DF05FF900234DE02C2917D03229E1D17B
:10574000030028331B78012BDCD113682934036153
:10575000D368436153688361032305E00023D35674
:10576000002BCFD0062329342370CBE71378012BED
:105770000FD1030028331B78012B05D1C369002BFF
:10578000C0D129340333EFE7032BBBD129340533D0
:10579000EAE7002BB6D1020028321278012A12D192
:1057A0000200062129321170C269002A02D0036169
:1057B00043618361002461B23F48013402F000FB81
:1057C0000B2CF8D19EE7032A9CD129340723CBE781
:1057D0000023D356236295E7130063331E78002E0F
:1057E00024D107004D373100212238000DF01DF97A
:1057F00028000EF00BF92900020038000DF0F9F82E
:105800002300012228331A70280026616661A661F0
:105810000EF0FCF82A002B00C1B2FF206232127891
:1058200021330090280000F066FF6BE703000B2295
:1058300029331A70FFF752FF64E713000A33180088
:1058400003930EF0E3F8270006002A3721220021F7
:1058500038000DF0EAF8B3B2002B04D01A00039917
:1058600038000DF0C6F8636A002B07D00023EA1A4F
:10587000527A616ACA540133062BF8D10123EB56E0
:1058800023622300AA784B331A70EA785A7042E7F1
:10589000436A002B0AD000232B321178606A013A48
:1058A000C1540133062BF8D1002363622000290084
:1058B0004D300EF0A3F825E76C0D002010B50A005E
:1058C00001000248FFF710FF10BDC046D00C0020B9
:1058D000F8B5040010000E00150008F089FA012345
:1058E000002806D12062300002F086F8002802DA93
:1058F00000231800F8BD05F0DFFE0700266A002E21
:1059000009D105F0D9FE094BC01B984203D83000DD
:1059100000F056FEF2E7216A0029E9D0280008F0DD
:105920009AFA002323620133E3E7C0461F4E0000CA
:1059300070B58CB001AC0462050000F053FF05F0B7
:10594000BBFE06002B6A002B09D005F0B5FE134BF9
:10595000801B984203D8002000F032FEF2E70020BE
:105960002B6A834216D12388834213D00C4A03A8A2
:105970009B180893A378013B0793E3780693237958
:10598000059363790493A379039301235B420B93FB
:105990000DF01EF900232B620CB070BD87130000C0
:1059A00094F8FFFF064B0022190028310A701A6094
:1059B0001A00FF2129321170024A1A677047C04647
:1059C000D00C002060EA00000020704713B56B4641
:1059D0000268D9710733546819000122A04716BD27
:1059E00013B56B46DC1D036801225B6A21009847F2
:1059F000012801D1207816BD01204042FBE7704705
:105A0000007C40B20130431E9841C0B27047000094
:105A1000102110B541560400002904DB024802F0B1
:105A2000CFF9FF23237410BD6C0D0020102110B599
:105A3000415600204B1C02D0014802F07AF910BDFB
:105A40006C0D0020036870B51B6904000D00160082
:105A5000984780B2002807D01021330061562A00F1
:105A6000034802F048FA70BD01204042FBE7C046FF
:105A70006C0D0020036810B51B69040098470028CE
:105A800005D010210348615602F00AFA10BD01202A
:105A90004042FBE76C0D0020102110B5415600205C
:105AA000814202DB014802F035F910BD6C0D002087
:105AB000102213B58A560400531C07D1002100910F
:105AC0000B000A0008F07EF9200016BD014902F023
:105AD00044F9F9E76C0D0020102170B5415606001D
:105AE00000204B1C0DD0074D280002F040F910217A
:105AF00004007156280002F03AF9240200122043F3
:105B000080B270BD6C0D002070B5037C04000E00E7
:105B100015007F2B06D8002A04D00368DB6A98475B
:105B2000002804D1012300256360280070BD1021E6
:105B30002B0061563200034802F01EF90028F4DC05
:105B4000F0E7C0466C0D002000234360FA239B0061
:105B50008360034B08330360FF2303747047C04620
:105B6000787C0100F0B589B00393022304AE338042
:105B70004B6852BA736003687280DB6A040098470E
:105B8000002803D0236820009B6A9847194D039B87
:105B900001220221280002F065F80700207400208D
:105BA000874224DB039BDB070ED50E9B83420BD081
:105BB000180000F06BF90E9B01900093022339004E
:105BC0001A00280002F05FF81021320061561023FD
:105BD000280002F063F806000120002E07D11021F2
:105BE0002800615602F0ECF8FF233000237409B05E
:105BF000F0BDC0466C0D00207FB5064B04934B688A
:105C000004A90393059300230093FFF7ABFF07B0AC
:105C100000BDC04684850100F0B50C0089B00500C8
:105C200004A816001F0008F0C5F804AA21000948BE
:105C3000FFF74EFE00280BD0074B00940693059B00
:105C400032000393079306A93B002800FFF78AFF61
:105C500009B0F0BDD00C00208485010010B50023F0
:105C6000FFF7DAFF10BD7047034B10B51B68002B20
:105C700000D0984710BDC046440D002010B5D2B2E8
:105C8000C0B205F0E5FB10BD10B5C0B205F078FC60
:105C900010BD10B50400013C00D210BD012005F07C
:105CA00041FDF8E7002010B5094C205600280DDB17
:105CB0000021C0B206F0DAF86420FFF7EAFF20788E
:105CC000012106F0D3F86420FFF7E3FF10BDC046C2
:105CD000340000200022002010B5104B104C1A6038
:105CE0002056904207DBC0B2012106F073F82078FD
:105CF000012106F0BBF80B4B0021187806F06AF87A
:105D00000020094B1856002803DBC0B2022106F020
:105D100061F8FFF7C7FF002010BDC046440D00200A
:105D2000340000203300002031000020054B10B566
:105D300018600020044B032218560449FFF79EFF09
:105D400010BDC046440D002033000020695C0000F7
:105D50000300002010B5064A1056002B04D0032281
:105D60000449FFF78BFF10BDFFF78EFFFBE7C0462E
:105D700033000020695C0000034B044A1A600022D3
:105D80001A7101325A717047480D0020001BB7008C
:105D900010B50948FFF75AFA084C0121207806F09F
:105DA00019F82078012106F061F8FFF77BFF012048
:105DB000FFF76FFF002010BDA80C0020320000206C
:105DC000F0B585B003283ED1002202AB0D68073341
:105DD0000C894E681A70954222D0964230D10196B5
:105DE0001E0001320092194B194F06CB3800FFF705
:105DF00055FA184B0021187806F038F8002C14D00A
:105E000029783800FFF753F9009B30705A4253410C
:105E1000F618019B013C5A425341A4B2ED18EDE73C
:105E20000122009501921D00DDE70A4B012118783F
:105E300006F01CF83800FFF7B1F9200005B0F0BDFE
:105E400006204042FAE70120FBE7C046480D00204B
:105E5000A80C00203200002010B50248FFF71FF9FF
:105E6000002010BDA80C002010B5002A05D000238A
:105E7000CC5CC45401339A42FAD110BD002A04D03C
:105E80008218017001308242FBD170470023C15C4F
:105E90009AB201330029FAD110007047024AD37830
:105EA0000133DBB2D3707047201E00207047000022
:105EB000002307B50A4A012013700A4A9370FFF7BE
:105EC00047FF01A9084800F08BFE002806D10221F7
:105ED000019B05481943019100F086FE0EBDC046A6
:105EE000500D0020201E002070100000002010B572
:105EF0000A4CA378834207D16378834205D00020FF
:105F000063780133DBB2637010BD2378002BF6D0C9
:105F100000F030FD0028F2D0F6E7C046201E002039
:105F2000044A5378002B03D05378013BDBB2537003
:105F300000207047201E002010B5094B5A78002A17
:105F400003D05A78013AD2B25A7000205A7882426D
:105F500004D11B78834201D000F0DEFC10BDC046A6
:105F6000201E002010B5064C282200212000FFF73B
:105F700085FF0448FFF7DAFE034B0020E36110BD04
:105F8000201E00209D5E0000AD5E0000F0B58DB0CB
:105F9000019312AB049204CB070002927F221B886C
:105FA0000A40039314AB1B880D00059308AB5A708D
:105FB000082218705A80029A002A45D003995A88FC
:105FC00052180599521892B25A80FFF78FFF041E9B
:105FD00037D106AB0A90D88009909E1D099B2D02EF
:105FE0001F430997099B49481D43099508AD6B88D4
:105FF000099A1B0413430993099900F0F5FD041E47
:1060000038D102270990099B41483B4309930999DC
:1060100000F0EAFD041E2DD10A90308006AB9C1DD5
:1060200022883C4B9A4205D809A9394800F0D8FD8E
:1060300000280CD00A9B002B26D10324FFF77CFFFD
:10604000644220000DB0F0BD5A880199BAE7F423EC
:106050002288FF339A4203D901202388FFF719FED3
:10606000099E3E4009D10AA92B4800F0B9FD041E43
:10607000E0D00A96FFF754FFE3E706AB9A1DDB88F2
:1060800001339BB21380C9E70A9B08220B936B88EC
:1060900029009BB26B800B9800F0C8FD041EE9D16B
:1060A0000B9B08330B93049B002B0AD00B98019A8F
:1060B000190000F0BBFD041EDCD10B9B019AD31824
:1060C0000B93029B002B10D00199059B0B9A5B1A36
:1060D0009B180B930B98039A029900F0A7FD041EDE
:1060E000C8D10B9B039AD3180B930A9B0B489B00B8
:1060F00009930223099A13430993099900F074FD47
:10610000041EB7D1FFF718FF04009AE78C100000B7
:1061100078100000E7030000000415006C10000078
:10612000F0B5544B87B01B78002B32D0002301937D
:10613000019807B0F0BD63889F4209D06388FF1AB9
:10614000042F05DD0120FFF703FE0626764261E0FD
:106150002378012B60D1EB68002B08D0EB686078C6
:106160006188059A0839C0B2083289B29847414B14
:106170001B78002B06D1AB78002B03D0FFF798FEDD
:10618000061E47D13B4B1B78002BD1D1019B002B26
:1061900007D1394DEB78002BC8D0EB78013BDBB24F
:1061A000EB7003A9354800F01BFD01900028E9D1F0
:1061B0000122039B1342E5D00124FFF7C9FD039B95
:1061C0002E48A3430393039900F00EFD019000288D
